{
  "contractName": "Registry",
  "abi": [
    {
      "inputs": [
        {
          "internalType": "uint256",
          "name": "",
          "type": "uint256"
        }
      ],
      "name": "ContractList",
      "outputs": [
        {
          "internalType": "address",
          "name": "owner",
          "type": "address"
        },
        {
          "internalType": "address",
          "name": "contractAddress",
          "type": "address"
        }
      ],
      "stateMutability": "view",
      "type": "function",
      "constant": true
    },
    {
      "inputs": [
        {
          "internalType": "address",
          "name": "owner",
          "type": "address"
        },
        {
          "internalType": "address",
          "name": "contractAddress",
          "type": "address"
        }
      ],
      "name": "RegisterContract",
      "outputs": [],
      "stateMutability": "nonpayable",
      "type": "function"
    },
    {
      "inputs": [
        {
          "internalType": "address",
          "name": "owner",
          "type": "address"
        }
      ],
      "name": "getContractsForAddress",
      "outputs": [
        {
          "internalType": "uint256[]",
          "name": "",
          "type": "uint256[]"
        }
      ],
      "stateMutability": "nonpayable",
      "type": "function"
    }
  ],
  "bytecode": "0x608060405234801561001057600080fd5b50610504806100206000396000f3fe608060405234801561001057600080fd5b50600436106100415760003560e01c80631137287214610046578063d6b8d307146100aa578063f3c5042714610143575b600080fd5b6100a86004803603604081101561005c57600080fd5b81019080803573ffffffffffffffffffffffffffffffffffffffff169060200190929190803573ffffffffffffffffffffffffffffffffffffffff1690602001909291905050506101b8565b005b6100ec600480360360208110156100c057600080fd5b81019080803573ffffffffffffffffffffffffffffffffffffffff1690602001909291905050506102b8565b6040518080602001828103825283818151815260200191508051906020019060200280838360005b8381101561012f578082015181840152602081019050610114565b505050509050019250505060405180910390f35b61016f6004803603602081101561015957600080fd5b810190808035906020019092919050505061045d565b604051808373ffffffffffffffffffffffffffffffffffffffff1681526020018273ffffffffffffffffffffffffffffffffffffffff1681526020019250505060405180910390f35b600060405180604001604052808473ffffffffffffffffffffffffffffffffffffffff1681526020018373ffffffffffffffffffffffffffffffffffffffff16815250908060018154018082558091505060019003906000526020600020906002020160009091909190915060008201518160000160006101000a81548173ffffffffffffffffffffffffffffffffffffffff021916908373ffffffffffffffffffffffffffffffffffffffff16021790555060208201518160010160006101000a81548173ffffffffffffffffffffffffffffffffffffffff021916908373ffffffffffffffffffffffffffffffffffffffff16021790555050505050565b60606000805b600080549050811015610353578373ffffffffffffffffffffffffffffffffffffffff16600082815481106102ef57fe5b906000526020600020906002020160000160009054906101000a900473ffffffffffffffffffffffffffffffffffffffff1673ffffffffffffffffffffffffffffffffffffffff1614156103465781806001019250505b80806001019150506102be565b5060608167ffffffffffffffff8111801561036d57600080fd5b5060405190808252806020026020018201604052801561039c5781602001602082028036833780820191505090505b5090506000805b600080549050811015610451578573ffffffffffffffffffffffffffffffffffffffff16600082815481106103d457fe5b906000526020600020906002020160000160009054906101000a900473ffffffffffffffffffffffffffffffffffffffff1673ffffffffffffffffffffffffffffffffffffffff161415610444578083838151811061042f57fe5b60200260200101818152505081806001019250505b80806001019150506103a3565b50819350505050919050565b6000818154811061046a57fe5b90600052602060002090600202016000915090508060000160009054906101000a900473ffffffffffffffffffffffffffffffffffffffff16908060010160009054906101000a900473ffffffffffffffffffffffffffffffffffffffff1690508256fea2646970667358221220700b7cabfcc9bea9953fdf7fef0db48cfed9734b0f381da57b8033995079688d64736f6c634300060c0033",
  "immutableReferences": {},
  "source": "pragma solidity 0.6.12;\n\ncontract Registry {\n\n    struct DeployedContract {\n        address owner;\n        address contractAddress;\n    }\n\n    DeployedContract[] public ContractList;\n\n    function RegisterContract(address owner, address contractAddress) public {\n        ContractList.push(DeployedContract(owner, contractAddress));\n    }\n\n    function getContractsForAddress(address owner) public returns (uint[] memory) {\n\n        uint256 numFound = 0;\n        for(uint i = 0; i < ContractList.length; i++) {\n            if (ContractList[i].owner == owner ) {\n                numFound++;\n            }\n        }\n\n        uint[] memory ids = new uint[](numFound);\n        uint j = 0;\n\n        for(uint i = 0; i < ContractList.length; i++) {\n            if (ContractList[i].owner == owner ) {\n                ids[j] = i;\n                j++;\n            }\n        }\n\n        return ids;\n    }\n\n}",
  "sourcePath": "C:/Users/ghard/Documents/GitHub/ERC-1337-Sandbox/contracts/Registry.sol",
  "compiler": {
    "name": "solc",
    "version": "0.6.12+commit.27d51765.Emscripten.clang"
  },
  "schemaVersion": "3.3.1",
  "updatedAt": "2020-10-30T21:52:37.588Z",
  "networkType": "ethereum",
  "devdoc": {
    "kind": "dev",
    "methods": {},
    "version": 1
  },
  "userdoc": {
    "kind": "user",
    "methods": {},
    "version": 1
  }
}