{
  "contractName": "Subscription",
  "abi": [
    {
      "inputs": [],
      "stateMutability": "nonpayable",
      "type": "constructor"
    },
    {
      "anonymous": false,
      "inputs": [
        {
          "indexed": true,
          "internalType": "address",
          "name": "sender",
          "type": "address"
        },
        {
          "indexed": false,
          "internalType": "uint256",
          "name": "value",
          "type": "uint256"
        }
      ],
      "name": "Received",
      "type": "event"
    },
    {
      "anonymous": false,
      "inputs": [
        {
          "indexed": false,
          "internalType": "address",
          "name": "add",
          "type": "address"
        }
      ],
      "name": "addressEvent",
      "type": "event"
    },
    {
      "anonymous": false,
      "inputs": [
        {
          "indexed": false,
          "internalType": "address",
          "name": "to",
          "type": "address"
        }
      ],
      "name": "createdSubscription",
      "type": "event"
    },
    {
      "anonymous": false,
      "inputs": [
        {
          "indexed": false,
          "internalType": "uint256",
          "name": "a",
          "type": "uint256"
        }
      ],
      "name": "uintEvent",
      "type": "event"
    },
    {
      "inputs": [
        {
          "internalType": "uint256",
          "name": "",
          "type": "uint256"
        }
      ],
      "name": "SubscriptionList",
      "outputs": [
        {
          "internalType": "address",
          "name": "subscriber",
          "type": "address"
        },
        {
          "internalType": "enum Enum.SubscriptionStatus",
          "name": "status",
          "type": "uint8"
        },
        {
          "internalType": "enum Enum.Period",
          "name": "period",
          "type": "uint8"
        },
        {
          "internalType": "enum Enum.Operation",
          "name": "operation",
          "type": "uint8"
        },
        {
          "internalType": "uint256",
          "name": "value",
          "type": "uint256"
        },
        {
          "internalType": "uint256",
          "name": "txGas",
          "type": "uint256"
        },
        {
          "internalType": "uint256",
          "name": "dataGas",
          "type": "uint256"
        },
        {
          "internalType": "uint256",
          "name": "gasPrice",
          "type": "uint256"
        },
        {
          "internalType": "address",
          "name": "gasToken",
          "type": "address"
        },
        {
          "internalType": "bytes",
          "name": "data",
          "type": "bytes"
        },
        {
          "internalType": "bytes",
          "name": "meta",
          "type": "bytes"
        }
      ],
      "stateMutability": "view",
      "type": "function",
      "constant": true
    },
    {
      "inputs": [
        {
          "internalType": "bytes32",
          "name": "",
          "type": "bytes32"
        }
      ],
      "name": "hashToSubscription",
      "outputs": [
        {
          "internalType": "uint256",
          "name": "",
          "type": "uint256"
        }
      ],
      "stateMutability": "view",
      "type": "function",
      "constant": true
    },
    {
      "inputs": [
        {
          "internalType": "bytes32",
          "name": "",
          "type": "bytes32"
        }
      ],
      "name": "publisherSigned",
      "outputs": [
        {
          "internalType": "bool",
          "name": "",
          "type": "bool"
        }
      ],
      "stateMutability": "view",
      "type": "function",
      "constant": true
    },
    {
      "stateMutability": "payable",
      "type": "receive",
      "payable": true
    },
    {
      "inputs": [
        {
          "internalType": "uint256",
          "name": "subscriptionHash",
          "type": "uint256"
        }
      ],
      "name": "isValidSubscription",
      "outputs": [
        {
          "internalType": "bool",
          "name": "success",
          "type": "bool"
        }
      ],
      "stateMutability": "nonpayable",
      "type": "function"
    },
    {
      "inputs": [
        {
          "internalType": "uint256",
          "name": "subscriptionHash",
          "type": "uint256"
        }
      ],
      "name": "getSubscriptionStatus",
      "outputs": [
        {
          "internalType": "uint256",
          "name": "status",
          "type": "uint256"
        },
        {
          "internalType": "uint256",
          "name": "nextWithdraw",
          "type": "uint256"
        }
      ],
      "stateMutability": "view",
      "type": "function",
      "constant": true
    },
    {
      "inputs": [
        {
          "internalType": "address",
          "name": "recipient",
          "type": "address"
        },
        {
          "internalType": "uint256",
          "name": "value",
          "type": "uint256"
        },
        {
          "internalType": "bytes",
          "name": "data",
          "type": "bytes"
        },
        {
          "internalType": "enum Enum.Operation",
          "name": "operation",
          "type": "uint8"
        },
        {
          "internalType": "uint256",
          "name": "txGas",
          "type": "uint256"
        },
        {
          "internalType": "uint256",
          "name": "dataGas",
          "type": "uint256"
        },
        {
          "internalType": "uint256",
          "name": "gasPrice",
          "type": "uint256"
        },
        {
          "internalType": "address",
          "name": "gasToken",
          "type": "address"
        },
        {
          "internalType": "bytes",
          "name": "meta",
          "type": "bytes"
        }
      ],
      "name": "getSubscriptionHash",
      "outputs": [
        {
          "internalType": "bytes32",
          "name": "subscriptionHash",
          "type": "bytes32"
        }
      ],
      "stateMutability": "view",
      "type": "function",
      "constant": true
    },
    {
      "inputs": [
        {
          "internalType": "bytes32",
          "name": "subscriptionHash",
          "type": "bytes32"
        },
        {
          "internalType": "enum Enum.SubscriptionStatus",
          "name": "status",
          "type": "uint8"
        }
      ],
      "name": "getModifyStatusHash",
      "outputs": [
        {
          "internalType": "bytes32",
          "name": "modifyStatusHash",
          "type": "bytes32"
        }
      ],
      "stateMutability": "view",
      "type": "function",
      "constant": true
    },
    {
      "inputs": [
        {
          "internalType": "bytes32",
          "name": "subscriptionHash",
          "type": "bytes32"
        },
        {
          "internalType": "enum Enum.SubscriptionStatus",
          "name": "status",
          "type": "uint8"
        },
        {
          "internalType": "bytes",
          "name": "signatures",
          "type": "bytes"
        }
      ],
      "name": "modifyStatus",
      "outputs": [
        {
          "internalType": "bool",
          "name": "success",
          "type": "bool"
        }
      ],
      "stateMutability": "nonpayable",
      "type": "function"
    },
    {
      "inputs": [
        {
          "internalType": "address",
          "name": "to",
          "type": "address"
        },
        {
          "internalType": "uint256",
          "name": "value",
          "type": "uint256"
        },
        {
          "internalType": "bytes",
          "name": "data",
          "type": "bytes"
        },
        {
          "internalType": "enum Enum.Operation",
          "name": "operation",
          "type": "uint8"
        },
        {
          "internalType": "uint256",
          "name": "txGas",
          "type": "uint256"
        },
        {
          "internalType": "uint256",
          "name": "dataGas",
          "type": "uint256"
        },
        {
          "internalType": "uint256",
          "name": "gasPrice",
          "type": "uint256"
        },
        {
          "internalType": "address",
          "name": "gasToken",
          "type": "address"
        },
        {
          "internalType": "bytes",
          "name": "meta",
          "type": "bytes"
        },
        {
          "internalType": "bytes",
          "name": "signatures",
          "type": "bytes"
        }
      ],
      "name": "executeSubscription",
      "outputs": [
        {
          "internalType": "bool",
          "name": "success",
          "type": "bool"
        }
      ],
      "stateMutability": "nonpayable",
      "type": "function"
    }
  ],
  "bytecode": "0x60806040523480156200001157600080fd5b506000604051806101600160405280600073ffffffffffffffffffffffffffffffffffffffff1681526020016003808111156200004a57fe5b60038111156200005657fe5b8152602001600060038111156200006957fe5b60038111156200007557fe5b8152602001600260048111156200008857fe5b60048111156200009457fe5b815260200160008152602001600081526020016000815260200160008152602001600073ffffffffffffffffffffffffffffffffffffffff1681526020016000604051602001808281526020019150506040516020818303038152906040528152602001600060405160200180828152602001915050604051602081830303815290604052815250908060018154018082558091505060019003906000526020600020906008020160009091909190915060008201518160000160006101000a81548173ffffffffffffffffffffffffffffffffffffffff021916908373ffffffffffffffffffffffffffffffffffffffff16021790555060208201518160000160146101000a81548160ff02191690836003811115620001b157fe5b021790555060408201518160000160156101000a81548160ff02191690836003811115620001db57fe5b021790555060608201518160000160166101000a81548160ff021916908360048111156200020557fe5b02179055506080820151816001015560a0820151816002015560c0820151816003015560e082015181600401556101008201518160050160006101000a81548173ffffffffffffffffffffffffffffffffffffffff021916908373ffffffffffffffffffffffffffffffffffffffff16021790555061012082015181600601908051906020019062000299929190620002c2565b50610140820151816007019080519060200190620002b9929190620002c2565b50505062000368565b828054600181600116156101000203166002900490600052602060002090601f016020900481019282601f106200030557805160ff191683800117855562000336565b8280016001018555821562000336579182015b828111156200033557825182559160200191906001019062000318565b5b50905062000345919062000349565b5090565b5b80821115620003645760008160009055506001016200034a565b5090565b6116c780620003786000396000f3fe60806040526004361061008a5760003560e01c806383c5c93a1161005957806383c5c93a1461038c578063bd646433146103dd578063c8d28e5a146104d2578063cdd6dc6f146106bb578063e6769e291461093d576100df565b80631d09af95146100e4578063711e63511461013357806373def2b81461018457806378d1899e14610330576100df565b366100df573373ffffffffffffffffffffffffffffffffffffffff167f88a5966d370b9919b20f3e2c13ff65706f196a4e32cc2c12bf57088f88525874346040518082815260200191505060405180910390a2005b600080fd5b3480156100f057600080fd5b5061011d6004803603602081101561010757600080fd5b8101908080359060200190929190505050610993565b6040518082815260200191505060405180910390f35b34801561013f57600080fd5b5061016c6004803603602081101561015657600080fd5b81019080803590602001909291905050506109ab565b60405180821515815260200191505060405180910390f35b34801561019057600080fd5b506101bd600480360360208110156101a757600080fd5b8101908080359060200190929190505050610a2a565b604051808c73ffffffffffffffffffffffffffffffffffffffff1681526020018b60038111156101e957fe5b81526020018a60038111156101fa57fe5b815260200189600481111561020b57fe5b81526020018881526020018781526020018681526020018581526020018473ffffffffffffffffffffffffffffffffffffffff1681526020018060200180602001838103835285818151815260200191508051906020019080838360005b83811015610284578082015181840152602081019050610269565b50505050905090810190601f1680156102b15780820380516001836020036101000a031916815260200191505b50838103825284818151815260200191508051906020019080838360005b838110156102ea5780820151818401526020810190506102cf565b50505050905090810190601f1680156103175780820380516001836020036101000a031916815260200191505b509d505050505050505050505050505060405180910390f35b34801561033c57600080fd5b506103766004803603604081101561035357600080fd5b8101908080359060200190929190803560ff169060200190929190505050610c28565b6040518082815260200191505060405180910390f35b34801561039857600080fd5b506103c5600480360360208110156103af57600080fd5b8101908080359060200190929190505050610c53565b60405180821515815260200191505060405180910390f35b3480156103e957600080fd5b506104ba6004803603606081101561040057600080fd5b8101908080359060200190929190803560ff1690602001909291908035906020019064010000000081111561043457600080fd5b82018360208201111561044657600080fd5b8035906020019184600183028401116401000000008311171561046857600080fd5b91908080601f016020809104026020016040519081016040528093929190818152602001838380828437600081840152601f19601f820116905080830192505050505050509192919290505050610c73565b60405180821515815260200191505060405180910390f35b3480156104de57600080fd5b506106a560048036036101208110156104f657600080fd5b81019080803573ffffffffffffffffffffffffffffffffffffffff169060200190929190803590602001909291908035906020019064010000000081111561053d57600080fd5b82018360208201111561054f57600080fd5b8035906020019184600183028401116401000000008311171561057157600080fd5b91908080601f016020809104026020016040519081016040528093929190818152602001838380828437600081840152601f19601f820116905080830192505050505050509192919290803560ff169060200190929190803590602001909291908035906020019092919080359060200190929190803573ffffffffffffffffffffffffffffffffffffffff1690602001909291908035906020019064010000000081111561061f57600080fd5b82018360208201111561063157600080fd5b8035906020019184600183028401116401000000008311171561065357600080fd5b91908080601f016020809104026020016040519081016040528093929190818152602001838380828437600081840152601f19601f820116905080830192505050505050509192919290505050610d35565b6040518082815260200191505060405180910390f35b3480156106c757600080fd5b5061092560048036036101408110156106df57600080fd5b81019080803573ffffffffffffffffffffffffffffffffffffffff169060200190929190803590602001909291908035906020019064010000000081111561072657600080fd5b82018360208201111561073857600080fd5b8035906020019184600183028401116401000000008311171561075a57600080fd5b91908080601f016020809104026020016040519081016040528093929190818152602001838380828437600081840152601f19601f820116905080830192505050505050509192919290803560ff169060200190929190803590602001909291908035906020019092919080359060200190929190803573ffffffffffffffffffffffffffffffffffffffff1690602001909291908035906020019064010000000081111561080857600080fd5b82018360208201111561081a57600080fd5b8035906020019184600183028401116401000000008311171561083c57600080fd5b91908080601f016020809104026020016040519081016040528093929190818152602001838380828437600081840152601f19601f8201169050808301925050505050505091929192908035906020019064010000000081111561089f57600080fd5b8201836020820111156108b157600080fd5b803590602001918460018302840111640100000000831117156108d357600080fd5b91908080601f016020809104026020016040519081016040528093929190818152602001838380828437600081840152601f19601f820116905080830192505050505050509192919290505050610edf565b60405180821515815260200191505060405180910390f35b34801561094957600080fd5b506109766004803603602081101561096057600080fd5b810190808035906020019092919050505061122b565b604051808381526020018281526020019250505060405180910390f35b60026020528060005260406000206000915090505481565b60008060038111156109b957fe5b60038111156109c457fe5b6000600260008560001b815260200190815260200160002054815481106109e757fe5b906000526020600020906008020160000160149054906101000a900460ff166003811115610a1157fe5b1415610a205760019050610a25565b600090505b919050565b60008181548110610a3757fe5b90600052602060002090600802016000915090508060000160009054906101000a900473ffffffffffffffffffffffffffffffffffffffff16908060000160149054906101000a900460ff16908060000160159054906101000a900460ff16908060000160169054906101000a900460ff16908060010154908060020154908060030154908060040154908060050160009054906101000a900473ffffffffffffffffffffffffffffffffffffffff1690806006018054600181600116156101000203166002900480601f016020809104026020016040519081016040528092919081815260200182805460018160011615610100020316600290048015610b805780601f10610b5557610100808354040283529160200191610b80565b820191906000526020600020905b815481529060010190602001808311610b6357829003601f168201915b505050505090806007018054600181600116156101000203166002900480601f016020809104026020016040519081016040528092919081815260200182805460018160011615610100020316600290048015610c1e5780601f10610bf357610100808354040283529160200191610c1e565b820191906000526020600020905b815481529060010190602001808311610c0157829003601f168201915b505050505090508b565b60007f544f444f00000000000000000000000000000000000000000000000000000000905092915050565b60016020528060005260406000206000915054906101000a900460ff1681565b600080600260008681526020019081526020016000205490506000610c988686610c28565b90506000610ca6828661123b565b90503373ffffffffffffffffffffffffffffffffffffffff168173ffffffffffffffffffffffffffffffffffffffff1614610ce75760009350505050610d2e565b8560008481548110610cf557fe5b906000526020600020906008020160000160146101000a81548160ff02191690836003811115610d2157fe5b0217905550600193505050505b9392505050565b6000601960f81b600060f81b8b8b8b8b8b8b8b8b8b604051602001808c7effffffffffffffffffffffffffffffffffffffffffffffffffffffffffffff191681526001018b7effffffffffffffffffffffffffffffffffffffffffffffffffffffffffffff191681526001018a73ffffffffffffffffffffffffffffffffffffffff1660601b815260140189815260200188805190602001908083835b60208310610df55780518252602082019150602081019050602083039250610dd2565b6001836020036101000a038019825116818451168082178552505050505050905001876004811115610e2357fe5b60f81b81526001018681526020018581526020018481526020018373ffffffffffffffffffffffffffffffffffffffff1660601b815260140182805190602001908083835b60208310610e8b5780518252602082019150602081019050602083039250610e68565b6001836020036101000a0380198251168184511680821785525050505050509050019b5050505050505050505050506040516020818303038152906040528051906020012090509998505050505050505050565b600080610ef38c8c8c8c8c8c8c8c8c610d35565b90506000610f01828561123b565b905060026004811115610f1057fe5b8a6004811115610f1c57fe5b1415611216573373ffffffffffffffffffffffffffffffffffffffff168173ffffffffffffffffffffffffffffffffffffffff1614610f605760009250505061121d565b60006040518061016001604052808f73ffffffffffffffffffffffffffffffffffffffff16815260200160006003811115610f9757fe5b8152602001610fa588611260565b6003811115610fb057fe5b6003811115610fbb57fe5b81526020018c6004811115610fcc57fe5b81526020018e81526020018b81526020018a81526020018981526020018873ffffffffffffffffffffffffffffffffffffffff1681526020018d815260200187815250908060018154018082558091505060019003906000526020600020906008020160009091909190915060008201518160000160006101000a81548173ffffffffffffffffffffffffffffffffffffffff021916908373ffffffffffffffffffffffffffffffffffffffff16021790555060208201518160000160146101000a81548160ff021916908360038111156110a357fe5b021790555060408201518160000160156101000a81548160ff021916908360038111156110cc57fe5b021790555060608201518160000160166101000a81548160ff021916908360048111156110f557fe5b02179055506080820151816001015560a0820151816002015560c0820151816003015560e082015181600401556101008201518160050160006101000a81548173ffffffffffffffffffffffffffffffffffffffff021916908373ffffffffffffffffffffffffffffffffffffffff1602179055506101208201518160060190805190602001906111879291906115b0565b506101408201518160070190805190602001906111a59291906115b0565b5050507f2a6a48af3424fbbe566daeb408de328c9a55132a93d6c2af396b2dfdbca7aa518d604051808273ffffffffffffffffffffffffffffffffffffffff16815260200191505060405180910390a160016000805490500360026000848152602001908152602001600020819055505b6001925050505b9a9950505050505050505050565b6000806000915060009050915091565b60006112588261124a856112c0565b61131890919063ffffffff16565b905092915050565b600080600080600085806020019051608081101561127d57600080fd5b8101908080519060200190929190805190602001909291908051906020019092919080519060200190929190505050935093509350935082945050505050919050565b60008160405160200180807f19457468657265756d205369676e6564204d6573736167653a0a333200000000815250601c01828152602001915050604051602081830303815290604052805190602001209050919050565b60006041825114611391576040517f08c379a000000000000000000000000000000000000000000000000000000000815260040180806020018281038252601f8152602001807f45434453413a20696e76616c6964207369676e6174757265206c656e6774680081525060200191505060405180910390fd5b60008060006020850151925060408501519150606085015160001a90507f7fffffffffffffffffffffffffffffff5d576e7357a4501ddfe92f46681b20a08260001c111561142a576040517f08c379a000000000000000000000000000000000000000000000000000000000815260040180806020018281038252602281526020018061164e6022913960400191505060405180910390fd5b601b8160ff16141580156114425750601c8160ff1614155b15611498576040517f08c379a00000000000000000000000000000000000000000000000000000000081526004018080602001828103825260228152602001806116706022913960400191505060405180910390fd5b600060018783868660405160008152602001604052604051808581526020018460ff1681526020018381526020018281526020019450505050506020604051602081039080840390855afa1580156114f4573d6000803e3d6000fd5b505050602060405103519050600073ffffffffffffffffffffffffffffffffffffffff168173ffffffffffffffffffffffffffffffffffffffff1614156115a3576040517f08c379a00000000000000000000000000000000000000000000000000000000081526004018080602001828103825260188152602001807f45434453413a20696e76616c6964207369676e6174757265000000000000000081525060200191505060405180910390fd5b8094505050505092915050565b828054600181600116156101000203166002900490600052602060002090601f016020900481019282601f106115f157805160ff191683800117855561161f565b8280016001018555821561161f579182015b8281111561161e578251825591602001919060010190611603565b5b50905061162c9190611630565b5090565b5b80821115611649576000816000905550600101611631565b509056fe45434453413a20696e76616c6964207369676e6174757265202773272076616c756545434453413a20696e76616c6964207369676e6174757265202776272076616c7565a2646970667358221220757d3b917ee932e196281c0f0b8a8c29eab0ee95d18c2a1f8b8fec05d661e09d64736f6c634300060c0033",
  "immutableReferences": {},
  "source": "pragma solidity 0.6.12;\r\n\r\nimport \"./Enum.sol\";\r\nimport \"./ERC165.sol\";\r\n\r\nimport \"@openzeppelin/contracts/math/SafeMath.sol\";\r\nimport \"@openzeppelin/contracts/cryptography/ECDSA.sol\";\r\nimport \"@openzeppelin/contracts/token/ERC20/ERC20.sol\";\r\n\r\n\r\n// contract Subscription is Enum, ERC165 {\r\ncontract Subscription is Enum {\r\n\r\n    // I am going to implement this backwards, where the publisher is the owner and the the subscriber is the reciepent\r\n\r\n    using SafeMath for uint256;\r\n    using ECDSA for bytes32;\r\n\r\n    receive () external payable {\r\n        emit Received(msg.sender, msg.value);\r\n    }\r\n\r\n    //------------------- Storage -------------------\r\n\r\n    struct Subscriptions {\r\n        address subscriber;\r\n        Enum.SubscriptionStatus status;\r\n        Enum.Period period;\r\n        Enum.Operation operation;\r\n        uint256 value;\r\n        uint256 txGas;\r\n        uint256 dataGas;\r\n        uint256 gasPrice;\r\n        address gasToken;\r\n        bytes data;\r\n        bytes meta;\r\n    }\r\n\r\n    struct MetaStruct {\r\n        address refundAddress;\r\n        uint256 period;\r\n        uint256 offChainID;\r\n        uint256 expiration;\r\n    }\r\n\r\n    Subscriptions[] public SubscriptionList;\r\n\r\n    constructor() public {\r\n        // Make first subscription object in list invalid\r\n        SubscriptionList.push(Subscriptions(\r\n            address(0),\r\n            Enum.SubscriptionStatus(3),\r\n            Enum.Period(0),\r\n            Enum.Operation(2),\r\n            0,\r\n            0,\r\n            0,\r\n            0,\r\n            address(0),\r\n            abi.encode(0),\r\n            abi.encode(0)\r\n        ));\r\n    }\r\n\r\n    //------------------- Events -------------------\r\n\r\n    event Received (address indexed sender, uint value);\r\n    event createdSubscription(address to);\r\n\r\n\r\n    event addressEvent (address add);\r\n    event uintEvent (uint256 a);\r\n\r\n    //------------------- Mapping -------------------\r\n\r\n    // for some cases of delegated execution, this contract will pay a third party\r\n    // to execute the transfer. If this happens, the owner of this contract must\r\n    // sign the subscriptionHash\r\n\r\n    // In my case, use this to charge the subscription cut possibly?\r\n    mapping(bytes32 => bool) public publisherSigned;\r\n\r\n    mapping(bytes32 => uint256) public hashToSubscription;\r\n    //------------------- Public View Functions -------------------\r\n\r\n    /* @dev Checks if the subscription is valid.\r\n    * @param subscriptionHash is the identifier of the customer's subscription with its relevant details.\r\n    * @return success is the result of whether the subscription is valid or not.\r\n    **/\r\n    function isValidSubscription(\r\n            uint256 subscriptionHash\r\n        ) \r\n        public \r\n\r\n        returns (\r\n            bool success\r\n        ) {\r\n            // TODO\r\n\r\n            if (SubscriptionList[hashToSubscription[bytes32(subscriptionHash)]].status== Enum.SubscriptionStatus(0)) {\r\n                return true;\r\n            } else {\r\n                return false;\r\n            }\r\n\r\n        }\r\n\r\n    /* @dev returns the value of the subscription\r\n    * @param subscriptionHash is the identifier of the customer's subscription with its relevant details.\r\n    * @return status is the enumerated status of the current subscription, 0 expired, 1 active, 2 paused, 3 cancelled\r\n    * @return nextWithdraw is the time to next withdraw in seconds\r\n    **/\r\n\r\n    function getSubscriptionStatus(\r\n        uint256 subscriptionHash\r\n        )\r\n        public \r\n        view \r\n        returns (\r\n            uint256 status, \r\n            uint256 nextWithdraw\r\n        ) {\r\n            // TODO\r\n\r\n            status = 0;\r\n            nextWithdraw = 0;\r\n\r\n            return (status, nextWithdraw);\r\n        }\r\n\r\n    /* @dev returns the hash of cocatenated inputs to the address of the contract holding the logic.,\r\n    * the owner would sign this hash and then provide it to the party for execution at a later date,\r\n    * this could be viewed like a cheque, with the exception that unless you specifically\r\n    * capture the hash on chain a valid signature will be executable at a later date, capturing the hash lets you modify the status to cancel or expire it.\r\n    * @param recipient the address of the person who is getting the funds.\r\n    * @param value the value of the transaction\r\n    * @param data the data the user is agreeing to\r\n    * @param txGas the cost of executing one of these transactions in gas(probably safe to pad this)\r\n    * @param dataGas the cost of executing the data portion of the transaction(delegate calls etc)\r\n    * @param gasPrice the agreed upon gas cost of Execution of this subscription(cost incurment is up to implementation, ie, sender or receiver)\r\n    * @param gasToken address of the token in which gas will be compensated by, address(0) is ETH, only works in the case of an enscrow implementation)\r\n    * @param meta dynamic bytes array with 4 slots, 2 required, 2 optional // address refundAddress / uint256 period / uint256 offChainID / uint256 expiration (uinx timestamp)\r\n    * @return subscriptionHash return the hash input arguments concatenated to the address of the contract that holds the logic.\r\n    **/\r\n    function getSubscriptionHash(\r\n        address recipient,\r\n        uint256 value,\r\n        bytes memory data,\r\n        Enum.Operation operation,\r\n        uint256 txGas,\r\n        uint256 dataGas,\r\n        uint256 gasPrice,\r\n        address gasToken,\r\n        bytes memory meta\r\n        )\r\n        public\r\n        view\r\n        returns (\r\n            bytes32 subscriptionHash\r\n        ) {\r\n            // TODO: Add requirements \r\n            \r\n        return keccak256(\r\n            abi.encodePacked(\r\n                byte(0x19), \r\n                byte(0), \r\n                recipient, \r\n                value, \r\n                data, \r\n                operation, \r\n                txGas, \r\n                dataGas, \r\n                gasPrice, \r\n                gasToken, \r\n                meta\r\n        ));\r\n        }\r\n\r\n    /* @dev returns the hash of concatenated inputs that the owners user would sign with their public keys\r\n    * @param recipient the address of the person who is getting the funds.\r\n    * @param value the value of the transaction\r\n    * @return returns the hash of concatenated inputs with the address of the contract holding the subscription hash\r\n    **/\r\n    function getModifyStatusHash(\r\n            bytes32 subscriptionHash,\r\n            Enum.SubscriptionStatus status\r\n        )\r\n        public\r\n        view\r\n        returns (\r\n            bytes32 modifyStatusHash\r\n        ){\r\n        // TODO\r\n        modifyStatusHash = \"TODO\";\r\n        return modifyStatusHash;\r\n        }\r\n\r\n    //------------------- Public Functions -------------------\r\n\r\n    /* @dev modifys the current subscription status\r\n    * @param subscriptionHash is the identifier of the customer's subscription with its relevant details.\r\n    * @param status the new status of the subscription\r\n    * @param signatures of the requested method being called\r\n    * @return success is the result of the subscription being paused\r\n    **/\r\n    function modifyStatus(\r\n        bytes32 subscriptionHash, \r\n        Enum.SubscriptionStatus status, \r\n        bytes memory signatures\r\n        ) \r\n        public \r\n        returns (\r\n            bool success\r\n        ) {\r\n        // TODO\r\n\r\n        uint256 subNumber = hashToSubscription[subscriptionHash];\r\n\r\n        bytes32 modifyStatusHash = getModifyStatusHash(subscriptionHash, status);\r\n\r\n        address signer = getSubscriptionSigner(modifyStatusHash, signatures);\r\n\r\n        if(signer != msg.sender) {\r\n            return false;\r\n        } else {\r\n            SubscriptionList[subNumber].status = status;\r\n            return true;\r\n        }\r\n        }\r\n\r\n    /* @dev returns the hash of cocatenated inputs to the address of the contract holding the logic.,\r\n    * the owner would sign this hash and then provide it to the party for execution at a later date,\r\n    * this could be viewed like a cheque, with the exception that unless you specifically\r\n    * capture the hash on chain a valid signature will be executable at a later date, capturing the hash lets you modify the status to cancel or expire it.\r\n    * @param to the address of the person who is getting the funds.\r\n    * @param value the value of the transaction\r\n    * @param data the data the user is agreeing to\r\n    * @param txGas the cost of executing one of these transactions in gas(probably safe to pad this)\r\n    * @param dataGas the cost of executing the data portion of the transaction(delegate calls etc)\r\n    * @param gasPrice the agreed upon gas cost of Execution of this subscription(cost incurment is up to implementation, ie, sender or receiver)\r\n    * @param gasToken address of the token in which gas will be compensated by, address(0) is ETH, only works in the case of an enscrow implementation)\r\n    * @param meta dynamic bytes array with 4 slots, 2 required, 2 optional // address refundAddress / uint256 period / uint256 offChainID / uint256 expiration (uinx timestamp)\r\n    * @param signatures signatures concatenated that have signed the inputs as proof of valid execution\r\n    * @return success something to note that a failed execution will still pay the issuer of the transaction for their gas costs.\r\n    **/\r\n    function executeSubscription(\r\n            address to,\r\n            uint256 value,\r\n            bytes memory data,\r\n            Enum.Operation operation,\r\n            uint256 txGas,\r\n            uint256 dataGas,\r\n            uint256 gasPrice,\r\n            address gasToken,\r\n            bytes memory meta,\r\n            bytes memory signatures\r\n            )\r\n            public \r\n            returns (\r\n                bool success\r\n            ) {\r\n            // TODO\r\n\r\n            // TODO: Unpack dynamic meta array\r\n            // MetaStruct memory _meta;\r\n            // (_meta.refundAddress, _meta.period, _meta.offChainID, _meta.expiration) = abi.decode(meta, (address, uint256, uint256, uint256));\r\n\r\n            // create subscription hash\r\n\r\n            bytes32 _subHash = getSubscriptionHash(to, value, data, operation, txGas, dataGas, gasPrice, gasToken, meta);\r\n\r\n            // check for valid signature\r\n\r\n            address signer = getSubscriptionSigner(_subHash, signatures);\r\n\r\n            // emit addressEvent(signer);\r\n\r\n            // If creating subscription\r\n            if (operation == Enum.Operation.Create) {\r\n                // Subscriber must initialize their own subscription\r\n                if (signer != msg.sender) {\r\n\r\n                    return false;\r\n                } else {\r\n\r\n                    SubscriptionList.push(Subscriptions(\r\n                            to, \r\n                            Enum.SubscriptionStatus.ACTIVE, \r\n                            Enum.Period(periodFromMeta(meta)), // This should come from meta array \r\n                            operation, \r\n                            value, \r\n                            txGas, \r\n                            dataGas, \r\n                            gasPrice, \r\n                            gasToken, \r\n                            data, \r\n                            meta\r\n                        )\r\n                    );\r\n\r\n                    emit createdSubscription(to);\r\n\r\n                    hashToSubscription[_subHash] = SubscriptionList.length - 1;\r\n                }\r\n            }\r\n            return true;\r\n        }\r\n\r\n    //------------------- Private Functions -------------------\r\n\r\n    function getSubscriptionSigner(\r\n        bytes32 subscriptionHash, \r\n        bytes memory signatures\r\n        ) private pure\r\n        returns (\r\n            address\r\n        )  {\r\n        return subscriptionHash.toEthSignedMessageHash().recover(signatures);\r\n    }\r\n\r\n    function refundAddressFromMeta(\r\n        bytes memory meta\r\n    ) private pure\r\n    returns (\r\n        address\r\n    ){\r\n        (address refundAddress, uint256 period, uint256 offChainId, uint256 expiration) = abi.decode(meta, (address, uint256, uint256, uint256));\r\n        return refundAddress;\r\n    }\r\n\r\n    function periodFromMeta(\r\n        bytes memory meta\r\n    ) private pure\r\n    returns (\r\n        uint256\r\n    ){\r\n        (address refundAddress, uint256 period, uint256 offChainId, uint256 expiration) = abi.decode(meta, (address, uint256, uint256, uint256));\r\n        return period;\r\n    }\r\n}",
  "sourcePath": "/mnt/c/Users/ghard/Documents/GitHub/ERC-1337-Sandbox/contracts/Subscription.sol",
  "compiler": {
    "name": "solc",
    "version": "0.6.12+commit.27d51765.Emscripten.clang"
  },
  "schemaVersion": "3.3.1",
  "updatedAt": "2020-10-22T20:08:46.870Z",
  "networkType": "ethereum",
  "devdoc": {
    "kind": "dev",
    "methods": {},
    "version": 1
  },
  "userdoc": {
    "kind": "user",
    "methods": {},
    "version": 1
  }
}