{
  "contractName": "Subscription",
  "abi": [
    {
      "inputs": [],
      "stateMutability": "nonpayable",
      "type": "constructor"
    },
    {
      "anonymous": false,
      "inputs": [
        {
          "indexed": true,
          "internalType": "address",
          "name": "sender",
          "type": "address"
        },
        {
          "indexed": false,
          "internalType": "uint256",
          "name": "value",
          "type": "uint256"
        }
      ],
      "name": "Received",
      "type": "event"
    },
    {
      "stateMutability": "payable",
      "type": "receive"
    },
    {
      "inputs": [
        {
          "internalType": "uint256",
          "name": "subscriptionHash",
          "type": "uint256"
        }
      ],
      "name": "isValidSubscription",
      "outputs": [
        {
          "internalType": "bool",
          "name": "success",
          "type": "bool"
        }
      ],
      "stateMutability": "view",
      "type": "function"
    },
    {
      "inputs": [
        {
          "internalType": "uint256",
          "name": "subscriptionHash",
          "type": "uint256"
        }
      ],
      "name": "getSubscriptionStatus",
      "outputs": [
        {
          "internalType": "uint256",
          "name": "status",
          "type": "uint256"
        },
        {
          "internalType": "uint256",
          "name": "nextWithdraw",
          "type": "uint256"
        }
      ],
      "stateMutability": "view",
      "type": "function"
    },
    {
      "inputs": [
        {
          "internalType": "address",
          "name": "recipient",
          "type": "address"
        },
        {
          "internalType": "uint256",
          "name": "value",
          "type": "uint256"
        },
        {
          "internalType": "bytes",
          "name": "data",
          "type": "bytes"
        },
        {
          "internalType": "enum Enum.Operation",
          "name": "operation",
          "type": "uint8"
        },
        {
          "internalType": "uint256",
          "name": "txGas",
          "type": "uint256"
        },
        {
          "internalType": "uint256",
          "name": "dataGas",
          "type": "uint256"
        },
        {
          "internalType": "uint256",
          "name": "gasPrice",
          "type": "uint256"
        },
        {
          "internalType": "address",
          "name": "gasToken",
          "type": "address"
        },
        {
          "internalType": "bytes",
          "name": "meta",
          "type": "bytes"
        }
      ],
      "name": "getSubscriptionHash",
      "outputs": [
        {
          "internalType": "bytes32",
          "name": "subscriptionHash",
          "type": "bytes32"
        }
      ],
      "stateMutability": "view",
      "type": "function"
    },
    {
      "inputs": [
        {
          "internalType": "bytes32",
          "name": "subscriptionHash",
          "type": "bytes32"
        },
        {
          "internalType": "enum Enum.SubscriptionStatus",
          "name": "status",
          "type": "uint8"
        }
      ],
      "name": "getModifyStatusHash",
      "outputs": [
        {
          "internalType": "bytes32",
          "name": "modifyStatusHash",
          "type": "bytes32"
        }
      ],
      "stateMutability": "view",
      "type": "function"
    },
    {
      "inputs": [
        {
          "internalType": "uint256",
          "name": "subscriptionHash",
          "type": "uint256"
        },
        {
          "internalType": "enum Enum.SubscriptionStatus",
          "name": "status",
          "type": "uint8"
        },
        {
          "internalType": "bytes",
          "name": "signatures",
          "type": "bytes"
        }
      ],
      "name": "modifyStatus",
      "outputs": [
        {
          "internalType": "bool",
          "name": "success",
          "type": "bool"
        }
      ],
      "stateMutability": "nonpayable",
      "type": "function"
    },
    {
      "inputs": [
        {
          "internalType": "address",
          "name": "to",
          "type": "address"
        },
        {
          "internalType": "uint256",
          "name": "value",
          "type": "uint256"
        },
        {
          "internalType": "bytes",
          "name": "data",
          "type": "bytes"
        },
        {
          "internalType": "enum Enum.Operation",
          "name": "operation",
          "type": "uint8"
        },
        {
          "internalType": "uint256",
          "name": "txGas",
          "type": "uint256"
        },
        {
          "internalType": "uint256",
          "name": "dataGas",
          "type": "uint256"
        },
        {
          "internalType": "uint256",
          "name": "gasPrice",
          "type": "uint256"
        },
        {
          "internalType": "address",
          "name": "gasToken",
          "type": "address"
        },
        {
          "internalType": "bytes",
          "name": "meta",
          "type": "bytes"
        },
        {
          "internalType": "bytes",
          "name": "signatures",
          "type": "bytes"
        }
      ],
      "name": "executeSubscription",
      "outputs": [
        {
          "internalType": "bool",
          "name": "success",
          "type": "bool"
        }
      ],
      "stateMutability": "nonpayable",
      "type": "function"
    }
  ],
  "bytecode": "0x608060405234801561001057600080fd5b506107e5806100206000396000f3fe6080604052600436106100595760003560e01c8063711e6351146100b357806378d1899e14610104578063c8d28e5a14610160578063cc5a35b414610349578063cdd6dc6f1461043e578063e6769e29146106c0576100ae565b366100ae573373ffffffffffffffffffffffffffffffffffffffff167f88a5966d370b9919b20f3e2c13ff65706f196a4e32cc2c12bf57088f88525874346040518082815260200191505060405180910390a2005b600080fd5b3480156100bf57600080fd5b506100ec600480360360208110156100d657600080fd5b8101908080359060200190929190505050610716565b60405180821515815260200191505060405180910390f35b34801561011057600080fd5b5061014a6004803603604081101561012757600080fd5b8101908080359060200190929190803560ff169060200190929190505050610721565b6040518082815260200191505060405180910390f35b34801561016c57600080fd5b50610333600480360361012081101561018457600080fd5b81019080803573ffffffffffffffffffffffffffffffffffffffff16906020019092919080359060200190929190803590602001906401000000008111156101cb57600080fd5b8201836020820111156101dd57600080fd5b803590602001918460018302840111640100000000831117156101ff57600080fd5b91908080601f016020809104026020016040519081016040528093929190818152602001838380828437600081840152601f19601f820116905080830192505050505050509192919290803560ff169060200190929190803590602001909291908035906020019092919080359060200190929190803573ffffffffffffffffffffffffffffffffffffffff169060200190929190803590602001906401000000008111156102ad57600080fd5b8201836020820111156102bf57600080fd5b803590602001918460018302840111640100000000831117156102e157600080fd5b91908080601f016020809104026020016040519081016040528093929190818152602001838380828437600081840152601f19601f82011690508083019250505050505050919291929050505061074c565b6040518082815260200191505060405180910390f35b34801561035557600080fd5b506104266004803603606081101561036c57600080fd5b8101908080359060200190929190803560ff169060200190929190803590602001906401000000008111156103a057600080fd5b8201836020820111156103b257600080fd5b803590602001918460018302840111640100000000831117156103d457600080fd5b91908080601f016020809104026020016040519081016040528093929190818152602001838380828437600081840152601f19601f82011690508083019250505050505050919291929050505061077e565b60405180821515815260200191505060405180910390f35b34801561044a57600080fd5b506106a8600480360361014081101561046257600080fd5b81019080803573ffffffffffffffffffffffffffffffffffffffff16906020019092919080359060200190929190803590602001906401000000008111156104a957600080fd5b8201836020820111156104bb57600080fd5b803590602001918460018302840111640100000000831117156104dd57600080fd5b91908080601f016020809104026020016040519081016040528093929190818152602001838380828437600081840152601f19601f820116905080830192505050505050509192919290803560ff169060200190929190803590602001909291908035906020019092919080359060200190929190803573ffffffffffffffffffffffffffffffffffffffff1690602001909291908035906020019064010000000081111561058b57600080fd5b82018360208201111561059d57600080fd5b803590602001918460018302840111640100000000831117156105bf57600080fd5b91908080601f016020809104026020016040519081016040528093929190818152602001838380828437600081840152601f19601f8201169050808301925050505050505091929192908035906020019064010000000081111561062257600080fd5b82018360208201111561063457600080fd5b8035906020019184600183028401116401000000008311171561065657600080fd5b91908080601f016020809104026020016040519081016040528093929190818152602001838380828437600081840152601f19601f82011690508083019250505050505050919291929050505061078b565b60405180821515815260200191505060405180910390f35b3480156106cc57600080fd5b506106f9600480360360208110156106e357600080fd5b810190808035906020019092919050505061079f565b604051808381526020018281526020019250505060405180910390f35b600060019050919050565b60007f544f444f00000000000000000000000000000000000000000000000000000000905092915050565b60007f544f444f0000000000000000000000000000000000000000000000000000000090509998505050505050505050565b6000600190509392505050565b6000600190509a9950505050505050505050565b600080600091506000905091509156fea2646970667358221220a1c87bf354463cb7eb58315e3b2834dcb2117631cbe36d588de63e028706189764736f6c634300060c0033",
  "immutableReferences": {},
  "source": "pragma solidity >=0.4.21 <0.7.0;\r\n\r\nimport \"./Enum.sol\";\r\nimport \"./ERC165.sol\";\r\n\r\nimport \"@openzeppelin/contracts/math/SafeMath.sol\";\r\nimport \"@openzeppelin/contracts/cryptography/ECDSA.sol\";\r\n\r\n\r\n// contract Subscription is Enum, ERC165 {\r\ncontract Subscription is Enum {\r\n    using SafeMath for uint256;\r\n\r\n    constructor() public { }\r\n\r\n    receive () external payable {\r\n        emit Received(msg.sender, msg.value);\r\n    }\r\n\r\n    event Received (address indexed sender, uint value);\r\n\r\n    //------------------- Public View Functions -------------------\r\n\r\n    /* @dev Checks if the subscription is valid.\r\n    * @param subscriptionHash is the identifier of the customer's subscription with its relevant details.\r\n    * @return success is the result of whether the subscription is valid or not.\r\n    **/\r\n    function isValidSubscription(\r\n            uint256 subscriptionHash\r\n        ) \r\n        public \r\n        view \r\n        returns (\r\n            bool success\r\n        ) {\r\n            // TODO\r\n            return true;\r\n        }\r\n\r\n    /* @dev returns the value of the subscription\r\n    * @param subscriptionHash is the identifier of the customer's subscription with its relevant details.\r\n    * @return status is the enumerated status of the current subscription, 0 expired, 1 active, 2 paused, 3 cancelled\r\n    * @return nextWithdraw is the time to next withdraw in seconds\r\n    **/\r\n\r\n    function getSubscriptionStatus(\r\n        uint256 subscriptionHash\r\n        )\r\n        public \r\n        view \r\n        returns (\r\n            uint256 status, \r\n            uint256 nextWithdraw\r\n        ) {\r\n            // TODO\r\n            status = 0;\r\n            nextWithdraw = 0;\r\n\r\n            return (status, nextWithdraw);\r\n        }\r\n\r\n    /* @dev returns the hash of cocatenated inputs to the address of the contract holding the logic.,\r\n    * the owner would sign this hash and then provide it to the party for execution at a later date,\r\n    * this could be viewed like a cheque, with the exception that unless you specifically\r\n    * capture the hash on chain a valid signature will be executable at a later date, capturing the hash lets you modify the status to cancel or expire it.\r\n    * @param recipient the address of the person who is getting the funds.\r\n    * @param value the value of the transaction\r\n    * @param data the data the user is agreeing to\r\n    * @param txGas the cost of executing one of these transactions in gas(probably safe to pad this)\r\n    * @param dataGas the cost of executing the data portion of the transaction(delegate calls etc)\r\n    * @param gasPrice the agreed upon gas cost of Execution of this subscription(cost incurment is up to implementation, ie, sender or receiver)\r\n    * @param gasToken address of the token in which gas will be compensated by, address(0) is ETH, only works in the case of an enscrow implementation)\r\n    * @param meta dynamic bytes array with 4 slots, 2 required, 2 optional // address refundAddress / uint256 period / uint256 offChainID / uint256 expiration (uinx timestamp)\r\n    * @return subscriptionHash return the hash input arguments concatenated to the address of the contract that holds the logic.\r\n    **/\r\n    function getSubscriptionHash(\r\n        address recipient,\r\n        uint256 value,\r\n        bytes memory data,\r\n        Enum.Operation operation,\r\n        uint256 txGas,\r\n        uint256 dataGas,\r\n        uint256 gasPrice,\r\n        address gasToken,\r\n        bytes memory meta\r\n        )\r\n        public\r\n        view\r\n        returns (\r\n            bytes32 subscriptionHash\r\n        ) {\r\n            // TODO\r\n            subscriptionHash = \"TODO\";\r\n            return subscriptionHash;\r\n        }\r\n\r\n    /* @dev returns the hash of concatenated inputs that the owners user would sign with their public keys\r\n    * @param recipient the address of the person who is getting the funds.\r\n    * @param value the value of the transaction\r\n    * @return returns the hash of concatenated inputs with the address of the contract holding the subscription hash\r\n    **/\r\n    function getModifyStatusHash(\r\n            bytes32 subscriptionHash,\r\n            Enum.SubscriptionStatus status\r\n        )\r\n        public\r\n        view\r\n        returns (\r\n            bytes32 modifyStatusHash\r\n        ){\r\n            // TODO\r\n            modifyStatusHash = \"TODO\";\r\n            return modifyStatusHash;\r\n        }\r\n\r\n    //------------------- Public Functions -------------------\r\n\r\n    /* @dev modifys the current subscription status\r\n    * @param subscriptionHash is the identifier of the customer's subscription with its relevant details.\r\n    * @param status the new status of the subscription\r\n    * @param signatures of the requested method being called\r\n    * @return success is the result of the subscription being paused\r\n    **/\r\n    function modifyStatus(\r\n            uint256 subscriptionHash, \r\n            Enum.SubscriptionStatus status, \r\n            bytes memory signatures\r\n            ) \r\n            public \r\n            returns (\r\n                bool success\r\n            ) {\r\n                // TODO\r\n                return true;\r\n        }\r\n\r\n    /* @dev returns the hash of cocatenated inputs to the address of the contract holding the logic.,\r\n    * the owner would sign this hash and then provide it to the party for execution at a later date,\r\n    * this could be viewed like a cheque, with the exception that unless you specifically\r\n    * capture the hash on chain a valid signature will be executable at a later date, capturing the hash lets you modify the status to cancel or expire it.\r\n    * @param to the address of the person who is getting the funds.\r\n    * @param value the value of the transaction\r\n    * @param data the data the user is agreeing to\r\n    * @param txGas the cost of executing one of these transactions in gas(probably safe to pad this)\r\n    * @param dataGas the cost of executing the data portion of the transaction(delegate calls etc)\r\n    * @param gasPrice the agreed upon gas cost of Execution of this subscription(cost incurment is up to implementation, ie, sender or receiver)\r\n    * @param gasToken address of the token in which gas will be compensated by, address(0) is ETH, only works in the case of an enscrow implementation)\r\n    * @param meta dynamic bytes array with 4 slots, 2 required, 2 optional // address refundAddress / uint256 period / uint256 offChainID / uint256 expiration (uinx timestamp)\r\n    * @param signatures signatures concatenated that have signed the inputs as proof of valid execution\r\n    * @return success something to note that a failed execution will still pay the issuer of the transaction for their gas costs.\r\n    **/\r\n    function executeSubscription(\r\n            address to,\r\n            uint256 value,\r\n            bytes memory data,\r\n            Enum.Operation operation,\r\n            uint256 txGas,\r\n            uint256 dataGas,\r\n            uint256 gasPrice,\r\n            address gasToken,\r\n            bytes memory meta,\r\n            bytes memory signatures\r\n            )\r\n            public \r\n            returns (\r\n                bool success\r\n            ) {\r\n                // TODO\r\n                return true;\r\n        }\r\n\r\n    \r\n}",
  "sourcePath": "/mnt/c/Users/ghard/Documents/GitHub/ERC-1337-Sandbox/contracts/Subscription.sol",
  "compiler": {
    "name": "solc",
    "version": "0.6.12+commit.27d51765.Emscripten.clang"
  },
  "schemaVersion": "3.3.1",
  "updatedAt": "2020-10-21T00:44:14.808Z",
  "devdoc": {
    "kind": "dev",
    "methods": {},
    "version": 1
  },
  "userdoc": {
    "kind": "user",
    "methods": {},
    "version": 1
  }
}