{
  "contractName": "Subscription",
  "abi": [
    {
      "inputs": [
        {
          "internalType": "address",
          "name": "publisher",
          "type": "address"
        },
        {
          "internalType": "address",
          "name": "master",
          "type": "address"
        }
      ],
      "stateMutability": "nonpayable",
      "type": "constructor"
    },
    {
      "anonymous": false,
      "inputs": [
        {
          "indexed": true,
          "internalType": "address",
          "name": "sender",
          "type": "address"
        },
        {
          "indexed": false,
          "internalType": "uint256",
          "name": "value",
          "type": "uint256"
        }
      ],
      "name": "Received",
      "type": "event"
    },
    {
      "anonymous": false,
      "inputs": [
        {
          "indexed": false,
          "internalType": "address",
          "name": "add",
          "type": "address"
        }
      ],
      "name": "addressEvent",
      "type": "event"
    },
    {
      "anonymous": false,
      "inputs": [
        {
          "indexed": false,
          "internalType": "bool",
          "name": "truth",
          "type": "bool"
        }
      ],
      "name": "boolEvent",
      "type": "event"
    },
    {
      "anonymous": false,
      "inputs": [
        {
          "indexed": false,
          "internalType": "address",
          "name": "to",
          "type": "address"
        }
      ],
      "name": "createdSubscription",
      "type": "event"
    },
    {
      "anonymous": false,
      "inputs": [
        {
          "indexed": false,
          "internalType": "string",
          "name": "todo",
          "type": "string"
        }
      ],
      "name": "stringEvent",
      "type": "event"
    },
    {
      "anonymous": false,
      "inputs": [
        {
          "indexed": false,
          "internalType": "uint256",
          "name": "a",
          "type": "uint256"
        }
      ],
      "name": "uintEvent",
      "type": "event"
    },
    {
      "inputs": [
        {
          "internalType": "uint256",
          "name": "",
          "type": "uint256"
        }
      ],
      "name": "SubscriptionList",
      "outputs": [
        {
          "internalType": "address",
          "name": "subscriber",
          "type": "address"
        },
        {
          "internalType": "enum Enum.SubscriptionStatus",
          "name": "status",
          "type": "uint8"
        },
        {
          "internalType": "enum Enum.Period",
          "name": "period",
          "type": "uint8"
        },
        {
          "internalType": "enum Enum.Operation",
          "name": "operation",
          "type": "uint8"
        },
        {
          "internalType": "uint256",
          "name": "value",
          "type": "uint256"
        },
        {
          "internalType": "uint256",
          "name": "txGas",
          "type": "uint256"
        },
        {
          "internalType": "uint256",
          "name": "dataGas",
          "type": "uint256"
        },
        {
          "internalType": "uint256",
          "name": "gasPrice",
          "type": "uint256"
        },
        {
          "internalType": "uint256",
          "name": "nextWithdraw",
          "type": "uint256"
        },
        {
          "internalType": "address",
          "name": "gasToken",
          "type": "address"
        },
        {
          "internalType": "bytes",
          "name": "data",
          "type": "bytes"
        },
        {
          "internalType": "bytes",
          "name": "meta",
          "type": "bytes"
        }
      ],
      "stateMutability": "view",
      "type": "function",
      "constant": true
    },
    {
      "inputs": [
        {
          "internalType": "bytes32",
          "name": "",
          "type": "bytes32"
        }
      ],
      "name": "hashToSubscription",
      "outputs": [
        {
          "internalType": "uint256",
          "name": "",
          "type": "uint256"
        }
      ],
      "stateMutability": "view",
      "type": "function",
      "constant": true
    },
    {
      "inputs": [
        {
          "internalType": "bytes32",
          "name": "",
          "type": "bytes32"
        }
      ],
      "name": "publisherSigned",
      "outputs": [
        {
          "internalType": "bool",
          "name": "",
          "type": "bool"
        }
      ],
      "stateMutability": "view",
      "type": "function",
      "constant": true
    },
    {
      "stateMutability": "payable",
      "type": "receive",
      "payable": true
    },
    {
      "inputs": [
        {
          "internalType": "uint256",
          "name": "subscriptionHash",
          "type": "uint256"
        }
      ],
      "name": "isValidSubscription",
      "outputs": [
        {
          "internalType": "bool",
          "name": "success",
          "type": "bool"
        }
      ],
      "stateMutability": "view",
      "type": "function",
      "constant": true
    },
    {
      "inputs": [
        {
          "internalType": "uint256",
          "name": "subscriptionHash",
          "type": "uint256"
        }
      ],
      "name": "getSubscriptionStatus",
      "outputs": [
        {
          "internalType": "uint256",
          "name": "status",
          "type": "uint256"
        },
        {
          "internalType": "uint256",
          "name": "nextWithdraw",
          "type": "uint256"
        }
      ],
      "stateMutability": "view",
      "type": "function",
      "constant": true
    },
    {
      "inputs": [
        {
          "internalType": "address",
          "name": "subscriber",
          "type": "address"
        }
      ],
      "name": "getSubscriptionsForAddress",
      "outputs": [
        {
          "internalType": "uint256[]",
          "name": "",
          "type": "uint256[]"
        }
      ],
      "stateMutability": "view",
      "type": "function",
      "constant": true
    },
    {
      "inputs": [
        {
          "internalType": "address",
          "name": "recipient",
          "type": "address"
        },
        {
          "internalType": "uint256",
          "name": "value",
          "type": "uint256"
        },
        {
          "internalType": "bytes",
          "name": "data",
          "type": "bytes"
        },
        {
          "internalType": "enum Enum.Operation",
          "name": "operation",
          "type": "uint8"
        },
        {
          "internalType": "uint256",
          "name": "txGas",
          "type": "uint256"
        },
        {
          "internalType": "uint256",
          "name": "dataGas",
          "type": "uint256"
        },
        {
          "internalType": "uint256",
          "name": "gasPrice",
          "type": "uint256"
        },
        {
          "internalType": "address",
          "name": "gasToken",
          "type": "address"
        },
        {
          "internalType": "bytes",
          "name": "meta",
          "type": "bytes"
        }
      ],
      "name": "getSubscriptionHash",
      "outputs": [
        {
          "internalType": "bytes32",
          "name": "",
          "type": "bytes32"
        }
      ],
      "stateMutability": "view",
      "type": "function",
      "constant": true
    },
    {
      "inputs": [
        {
          "internalType": "bytes32",
          "name": "subscriptionHash",
          "type": "bytes32"
        },
        {
          "internalType": "enum Enum.SubscriptionStatus",
          "name": "status",
          "type": "uint8"
        }
      ],
      "name": "getModifyStatusHash",
      "outputs": [
        {
          "internalType": "bytes32",
          "name": "",
          "type": "bytes32"
        }
      ],
      "stateMutability": "view",
      "type": "function",
      "constant": true
    },
    {
      "inputs": [
        {
          "internalType": "bytes32",
          "name": "subscriptionHash",
          "type": "bytes32"
        },
        {
          "internalType": "enum Enum.SubscriptionStatus",
          "name": "status",
          "type": "uint8"
        },
        {
          "internalType": "bytes",
          "name": "signatures",
          "type": "bytes"
        }
      ],
      "name": "modifyStatus",
      "outputs": [
        {
          "internalType": "bool",
          "name": "success",
          "type": "bool"
        }
      ],
      "stateMutability": "nonpayable",
      "type": "function"
    },
    {
      "inputs": [
        {
          "internalType": "address",
          "name": "to",
          "type": "address"
        },
        {
          "internalType": "uint256",
          "name": "value",
          "type": "uint256"
        },
        {
          "internalType": "bytes",
          "name": "data",
          "type": "bytes"
        },
        {
          "internalType": "enum Enum.Operation",
          "name": "operation",
          "type": "uint8"
        },
        {
          "internalType": "uint256",
          "name": "txGas",
          "type": "uint256"
        },
        {
          "internalType": "uint256",
          "name": "dataGas",
          "type": "uint256"
        },
        {
          "internalType": "uint256",
          "name": "gasPrice",
          "type": "uint256"
        },
        {
          "internalType": "address",
          "name": "gasToken",
          "type": "address"
        },
        {
          "internalType": "bytes",
          "name": "meta",
          "type": "bytes"
        },
        {
          "internalType": "bytes",
          "name": "signatures",
          "type": "bytes"
        }
      ],
      "name": "executeSubscription",
      "outputs": [
        {
          "internalType": "bool",
          "name": "success",
          "type": "bool"
        }
      ],
      "stateMutability": "nonpayable",
      "type": "function"
    }
  ],
  "bytecode": "0x60806040523480156200001157600080fd5b5060405162002d7438038062002d74833981810160405260408110156200003757600080fd5b81019080805190602001909291908051906020019092919050505081600160006101000a81548173ffffffffffffffffffffffffffffffffffffffff021916908373ffffffffffffffffffffffffffffffffffffffff16021790555080600260006101000a81548173ffffffffffffffffffffffffffffffffffffffff021916908373ffffffffffffffffffffffffffffffffffffffff1602179055506000604051806101800160405280600073ffffffffffffffffffffffffffffffffffffffff1681526020016003808111156200010c57fe5b60038111156200011857fe5b8152602001600060038111156200012b57fe5b60038111156200013757fe5b8152602001600260048111156200014a57fe5b60048111156200015657fe5b81526020016000815260200160008152602001600081526020016000815260200160008152602001600073ffffffffffffffffffffffffffffffffffffffff1681526020016000604051602001808281526020019150506040516020818303038152906040528152602001600060405160200180828152602001915050604051602081830303815290604052815250908060018154018082558091505060019003906000526020600020906009020160009091909190915060008201518160000160006101000a81548173ffffffffffffffffffffffffffffffffffffffff021916908373ffffffffffffffffffffffffffffffffffffffff16021790555060208201518160000160146101000a81548160ff021916908360038111156200027a57fe5b021790555060408201518160000160156101000a81548160ff02191690836003811115620002a457fe5b021790555060608201518160000160166101000a81548160ff02191690836004811115620002ce57fe5b02179055506080820151816001015560a0820151816002015560c0820151816003015560e0820151816004015561010082015181600501556101208201518160060160006101000a81548173ffffffffffffffffffffffffffffffffffffffff021916908373ffffffffffffffffffffffffffffffffffffffff1602179055506101408201518160070190805190602001906200036d92919062000398565b506101608201518160080190805190602001906200038d92919062000398565b50505050506200043e565b828054600181600116156101000203166002900490600052602060002090601f016020900481019282601f10620003db57805160ff19168380011785556200040c565b828001600101855582156200040c579182015b828111156200040b578251825591602001919060010190620003ee565b5b5090506200041b91906200041f565b5090565b5b808211156200043a57600081600090555060010162000420565b5090565b612926806200044e6000396000f3fe6080604052600436106100955760003560e01c80639c8be162116100595780639c8be162146103ef578063bd64643314610495578063c8d28e5a1461058a578063cdd6dc6f14610773578063e6769e29146109f5576100ea565b80631d09af95146100ef578063711e63511461013e57806373def2b81461018f57806378d1899e1461034257806383c5c93a1461039e576100ea565b366100ea573373ffffffffffffffffffffffffffffffffffffffff167f88a5966d370b9919b20f3e2c13ff65706f196a4e32cc2c12bf57088f88525874346040518082815260200191505060405180910390a2005b600080fd5b3480156100fb57600080fd5b506101286004803603602081101561011257600080fd5b8101908080359060200190929190505050610a4b565b6040518082815260200191505060405180910390f35b34801561014a57600080fd5b506101776004803603602081101561016157600080fd5b8101908080359060200190929190505050610a63565b60405180821515815260200191505060405180910390f35b34801561019b57600080fd5b506101c8600480360360208110156101b257600080fd5b8101908080359060200190929190505050610a86565b604051808d73ffffffffffffffffffffffffffffffffffffffff1681526020018c60038111156101f457fe5b81526020018b600381111561020557fe5b81526020018a600481111561021657fe5b81526020018981526020018881526020018781526020018681526020018581526020018473ffffffffffffffffffffffffffffffffffffffff1681526020018060200180602001838103835285818151815260200191508051906020019080838360005b8381101561029557808201518184015260208101905061027a565b50505050905090810190601f1680156102c25780820380516001836020036101000a031916815260200191505b50838103825284818151815260200191508051906020019080838360005b838110156102fb5780820151818401526020810190506102e0565b50505050905090810190601f1680156103285780820380516001836020036101000a031916815260200191505b509e50505050505050505050505050505060405180910390f35b34801561034e57600080fd5b506103886004803603604081101561036557600080fd5b8101908080359060200190929190803560ff169060200190929190505050610c8a565b6040518082815260200191505060405180910390f35b3480156103aa57600080fd5b506103d7600480360360208110156103c157600080fd5b8101908080359060200190929190505050610ffa565b60405180821515815260200191505060405180910390f35b3480156103fb57600080fd5b5061043e6004803603602081101561041257600080fd5b81019080803573ffffffffffffffffffffffffffffffffffffffff16906020019092919050505061101a565b6040518080602001828103825283818151815260200191508051906020019060200280838360005b83811015610481578082015181840152602081019050610466565b505050509050019250505060405180910390f35b3480156104a157600080fd5b50610572600480360360608110156104b857600080fd5b8101908080359060200190929190803560ff169060200190929190803590602001906401000000008111156104ec57600080fd5b8201836020820111156104fe57600080fd5b8035906020019184600183028401116401000000008311171561052057600080fd5b91908080601f016020809104026020016040519081016040528093929190818152602001838380828437600081840152601f19601f8201169050808301925050505050505091929192905050506111bf565b60405180821515815260200191505060405180910390f35b34801561059657600080fd5b5061075d60048036036101208110156105ae57600080fd5b81019080803573ffffffffffffffffffffffffffffffffffffffff16906020019092919080359060200190929190803590602001906401000000008111156105f557600080fd5b82018360208201111561060757600080fd5b8035906020019184600183028401116401000000008311171561062957600080fd5b91908080601f016020809104026020016040519081016040528093929190818152602001838380828437600081840152601f19601f820116905080830192505050505050509192919290803560ff169060200190929190803590602001909291908035906020019092919080359060200190929190803573ffffffffffffffffffffffffffffffffffffffff169060200190929190803590602001906401000000008111156106d757600080fd5b8201836020820111156106e957600080fd5b8035906020019184600183028401116401000000008311171561070b57600080fd5b91908080601f016020809104026020016040519081016040528093929190818152602001838380828437600081840152601f19601f8201169050808301925050505050505091929192905050506112b2565b6040518082815260200191505060405180910390f35b34801561077f57600080fd5b506109dd600480360361014081101561079757600080fd5b81019080803573ffffffffffffffffffffffffffffffffffffffff16906020019092919080359060200190929190803590602001906401000000008111156107de57600080fd5b8201836020820111156107f057600080fd5b8035906020019184600183028401116401000000008311171561081257600080fd5b91908080601f016020809104026020016040519081016040528093929190818152602001838380828437600081840152601f19601f820116905080830192505050505050509192919290803560ff169060200190929190803590602001909291908035906020019092919080359060200190929190803573ffffffffffffffffffffffffffffffffffffffff169060200190929190803590602001906401000000008111156108c057600080fd5b8201836020820111156108d257600080fd5b803590602001918460018302840111640100000000831117156108f457600080fd5b91908080601f016020809104026020016040519081016040528093929190818152602001838380828437600081840152601f19601f8201169050808301925050505050505091929192908035906020019064010000000081111561095757600080fd5b82018360208201111561096957600080fd5b8035906020019184600183028401116401000000008311171561098b57600080fd5b91908080601f016020809104026020016040519081016040528093929190818152602001838380828437600081840152601f19601f82011690508083019250505050505050919291929050505061145d565b60405180821515815260200191505060405180910390f35b348015610a0157600080fd5b50610a2e60048036036020811015610a1857600080fd5b81019080803590602001909291905050506118f6565b604051808381526020018281526020019250505060405180910390f35b60046020528060005260406000206000915090505481565b600080600460008460001b81526020019081526020016000205414159050919050565b60008181548110610a9357fe5b90600052602060002090600902016000915090508060000160009054906101000a900473ffffffffffffffffffffffffffffffffffffffff16908060000160149054906101000a900460ff16908060000160159054906101000a900460ff16908060000160169054906101000a900460ff16908060010154908060020154908060030154908060040154908060050154908060060160009054906101000a900473ffffffffffffffffffffffffffffffffffffffff1690806007018054600181600116156101000203166002900480601f016020809104026020016040519081016040528092919081815260200182805460018160011615610100020316600290048015610be25780601f10610bb757610100808354040283529160200191610be2565b820191906000526020600020905b815481529060010190602001808311610bc557829003601f168201915b505050505090806008018054600181600116156101000203166002900480601f016020809104026020016040519081016040528092919081815260200182805460018160011615610100020316600290048015610c805780601f10610c5557610100808354040283529160200191610c80565b820191906000526020600020905b815481529060010190602001808311610c6357829003601f168201915b505050505090508c565b600080600460008581526020019081526020016000205490506000811415610d1a576040517f08c379a00000000000000000000000000000000000000000000000000000000081526004018080602001828103825260188152602001807f496e76616c696420737562736372697074696f6e48617368000000000000000081525060200191505060405180910390fd5b601960f81b600060f81b60008381548110610d3157fe5b906000526020600020906009020160000160009054906101000a900473ffffffffffffffffffffffffffffffffffffffff1660008481548110610d7057fe5b90600052602060002090600902016001015460008581548110610d8f57fe5b906000526020600020906009020160070160008681548110610dad57fe5b90600052602060002090600902016002015460008781548110610dcc57fe5b90600052602060002090600902016003015460008881548110610deb57fe5b90600052602060002090600902016004015460008981548110610e0a57fe5b906000526020600020906009020160060160009054906101000a900473ffffffffffffffffffffffffffffffffffffffff1660008a81548110610e4957fe5b90600052602060002090600902016008018c604051602001808c7effffffffffffffffffffffffffffffffffffffffffffffffffffffffffffff191681526001018b7effffffffffffffffffffffffffffffffffffffffffffffffffffffffffffff191681526001018a73ffffffffffffffffffffffffffffffffffffffff1660601b815260140189815260200188805460018160011615610100020316600290048015610f2e5780601f10610f0c576101008083540402835291820191610f2e565b820191906000526020600020905b815481529060010190602001808311610f1a575b50508781526020018681526020018581526020018473ffffffffffffffffffffffffffffffffffffffff1660601b815260140183805460018160011615610100020316600290048015610fb85780601f10610f96576101008083540402835291820191610fb8565b820191906000526020600020905b815481529060010190602001808311610fa4575b5050826003811115610fc657fe5b60f81b81526001019b5050505050505050505050506040516020818303038152906040528051906020012091505092915050565b60036020528060005260406000206000915054906101000a900460ff1681565b60606000805b6000805490508110156110b5578373ffffffffffffffffffffffffffffffffffffffff166000828154811061105157fe5b906000526020600020906009020160000160009054906101000a900473ffffffffffffffffffffffffffffffffffffffff1673ffffffffffffffffffffffffffffffffffffffff1614156110a85781806001019250505b8080600101915050611020565b5060608167ffffffffffffffff811180156110cf57600080fd5b506040519080825280602002602001820160405280156110fe5781602001602082028036833780820191505090505b5090506000805b6000805490508110156111b3578573ffffffffffffffffffffffffffffffffffffffff166000828154811061113657fe5b906000526020600020906009020160000160009054906101000a900473ffffffffffffffffffffffffffffffffffffffff1673ffffffffffffffffffffffffffffffffffffffff1614156111a6578083838151811061119157fe5b60200260200101818152505081806001019250505b8080600101915050611105565b50819350505050919050565b6000806004600086815260200190815260200160002054905060006111e48686610c8a565b905060006111f28286611984565b90503373ffffffffffffffffffffffffffffffffffffffff168173ffffffffffffffffffffffffffffffffffffffff161461123357600093505050506112ab565b60006004600089815260200190815260200160002081905550826004600084815260200190815260200160002081905550856000848154811061127257fe5b906000526020600020906009020160000160146101000a81548160ff0219169083600381111561129e57fe5b0217905550600193505050505b9392505050565b6000601960f81b600060f81b8b8b8b8a8a8a8a8a6000604051602001808c7effffffffffffffffffffffffffffffffffffffffffffffffffffffffffffff191681526001018b7effffffffffffffffffffffffffffffffffffffffffffffffffffffffffffff191681526001018a73ffffffffffffffffffffffffffffffffffffffff1660601b815260140189815260200188805190602001908083835b602083106113735780518252602082019150602081019050602083039250611350565b6001836020036101000a0380198251168184511680821785525050505050509050018781526020018681526020018581526020018473ffffffffffffffffffffffffffffffffffffffff1660601b815260140183805190602001908083835b602083106113f557805182526020820191506020810190506020830392506113d2565b6001836020036101000a03801982511681845116808217855250505050505090500182600381111561142357fe5b60f81b81526001019b5050505050505050505050506040516020818303038152906040528051906020012090509998505050505050505050565b6000806114718c8c8c8c8c8c8c8c8c6112b2565b9050600061147f8285611984565b90506002600481111561148e57fe5b8a600481111561149a57fe5b14156117d8573373ffffffffffffffffffffffffffffffffffffffff168173ffffffffffffffffffffffffffffffffffffffff16146114de576000925050506118e8565b6000600460008481526020019081526020016000205414611504576000925050506118e8565b60006040518061018001604052808f73ffffffffffffffffffffffffffffffffffffffff1681526020016000600381111561153b57fe5b8152602001611549886119a9565b600381111561155457fe5b600381111561155f57fe5b81526020018c600481111561157057fe5b81526020018e81526020018b81526020018a81526020018981526020016001420381526020018873ffffffffffffffffffffffffffffffffffffffff1681526020018d815260200187815250908060018154018082558091505060019003906000526020600020906009020160009091909190915060008201518160000160006101000a81548173ffffffffffffffffffffffffffffffffffffffff021916908373ffffffffffffffffffffffffffffffffffffffff16021790555060208201518160000160146101000a81548160ff0219169083600381111561165057fe5b021790555060408201518160000160156101000a81548160ff0219169083600381111561167957fe5b021790555060608201518160000160166101000a81548160ff021916908360048111156116a257fe5b02179055506080820151816001015560a0820151816002015560c0820151816003015560e0820151816004015561010082015181600501556101208201518160060160006101000a81548173ffffffffffffffffffffffffffffffffffffffff021916908373ffffffffffffffffffffffffffffffffffffffff16021790555061014082015181600701908051906020019061173f929190612761565b5061016082015181600801908051906020019061175d929190612761565b5050507f2a6a48af3424fbbe566daeb408de328c9a55132a93d6c2af396b2dfdbca7aa518d604051808273ffffffffffffffffffffffffffffffffffffffff16815260200191505060405180910390a160016000805490500360046000848152602001908152602001600020819055506001925050506118e8565b600060048111156117e557fe5b8a60048111156117f157fe5b14156118e557600060046000848152602001908152602001600020548154811061181757fe5b906000526020600020906009020160000160009054906101000a900473ffffffffffffffffffffffffffffffffffffffff1673ffffffffffffffffffffffffffffffffffffffff168173ffffffffffffffffffffffffffffffffffffffff1614611886576000925050506118e8565b4260006004600085815260200190815260200160002054815481106118a757fe5b90600052602060002090600902016005015411156118ca576000925050506118e8565b6118d382611a09565b6118dc82611cd9565b925050506118e8565b50505b9a9950505050505050505050565b6000806000600460008560001b8152602001908152602001600020548154811061191c57fe5b906000526020600020906009020160000160149054906101000a900460ff16600381111561194657fe5b6000600460008660001b8152602001908152602001600020548154811061196957fe5b90600052602060002090600902016005015491509150915091565b60006119a182611993856123b5565b61240d90919063ffffffff16565b905092915050565b60008060008060008580602001905160808110156119c657600080fd5b8101908080519060200190929190805190602001909291908051906020019092919080519060200190929190505050935093509350935082945050505050919050565b600080600460008481526020019081526020016000205481548110611a2a57fe5b906000526020600020906009020160000160159054906101000a900460ff16905060006003811115611a5857fe5b6003811115611a6357fe5b816003811115611a6f57fe5b1415611ac357611a89603c426126a590919063ffffffff16565b6000600460008581526020019081526020016000205481548110611aa957fe5b906000526020600020906009020160050181905550611c2f565b60016003811115611ad057fe5b6003811115611adb57fe5b816003811115611ae757fe5b1415611b3d57611b0362015180426126a590919063ffffffff16565b6000600460008581526020019081526020016000205481548110611b2357fe5b906000526020600020906009020160050181905550611c2e565b60026003811115611b4a57fe5b6003811115611b5557fe5b816003811115611b6157fe5b1415611bb757611b7d62093a80426126a590919063ffffffff16565b6000600460008581526020019081526020016000205481548110611b9d57fe5b906000526020600020906009020160050181905550611c2d565b600380811115611bc357fe5b6003811115611bce57fe5b816003811115611bda57fe5b1415611c2c57611bf662278d00426126a590919063ffffffff16565b6000600460008581526020019081526020016000205481548110611c1657fe5b9060005260206000209060090201600501819055505b5b5b5b426000600460008581526020019081526020016000205481548110611c5057fe5b90600052602060002090600902016005015411611cd5576040517f08c379a000000000000000000000000000000000000000000000000000000000815260040180806020018281038252601e8152602001807f4661696c656420746f20757064617465206e657874207769746864726177000081525060200191505060405180910390fd5b5050565b6000611ce36127e1565b6000600460008581526020019081526020016000205481548110611d0357fe5b9060005260206000209060090201604051806101800160405290816000820160009054906101000a900473ffffffffffffffffffffffffffffffffffffffff1673ffffffffffffffffffffffffffffffffffffffff1673ffffffffffffffffffffffffffffffffffffffff1681526020016000820160149054906101000a900460ff166003811115611d9157fe5b6003811115611d9c57fe5b81526020016000820160159054906101000a900460ff166003811115611dbe57fe5b6003811115611dc957fe5b81526020016000820160169054906101000a900460ff166004811115611deb57fe5b6004811115611df657fe5b815260200160018201548152602001600282015481526020016003820154815260200160048201548152602001600582015481526020016006820160009054906101000a900473ffffffffffffffffffffffffffffffffffffffff1673ffffffffffffffffffffffffffffffffffffffff1673ffffffffffffffffffffffffffffffffffffffff168152602001600782018054600181600116156101000203166002900480601f016020809104026020016040519081016040528092919081815260200182805460018160011615610100020316600290048015611f1b5780601f10611ef057610100808354040283529160200191611f1b565b820191906000526020600020905b815481529060010190602001808311611efe57829003601f168201915b50505050508152602001600882018054600181600116156101000203166002900480601f016020809104026020016040519081016040528092919081815260200182805460018160011615610100020316600290048015611fbd5780601f10611f9257610100808354040283529160200191611fbd565b820191906000526020600020905b815481529060010190602001808311611fa057829003601f168201915b50505050508152505090506000611fd882610140015161272d565b905060008173ffffffffffffffffffffffffffffffffffffffff1663dd62ed3e8460000151306040518363ffffffff1660e01b8152600401808373ffffffffffffffffffffffffffffffffffffffff1681526020018273ffffffffffffffffffffffffffffffffffffffff1681526020019250505060206040518083038186803b15801561206557600080fd5b505afa158015612079573d6000803e3d6000fd5b505050506040513d602081101561208f57600080fd5b8101908080519060200190929190505050141561210e576003808111156120b257fe5b60006004600087815260200190815260200160002054815481106120d257fe5b906000526020600020906009020160000160146101000a81548160ff021916908360038111156120fe57fe5b02179055506000925050506123b0565b60008173ffffffffffffffffffffffffffffffffffffffff166370a08231600160009054906101000a900473ffffffffffffffffffffffffffffffffffffffff166040518263ffffffff1660e01b8152600401808273ffffffffffffffffffffffffffffffffffffffff16815260200191505060206040518083038186803b15801561219957600080fd5b505afa1580156121ad573d6000803e3d6000fd5b505050506040513d60208110156121c357600080fd5b810190808051906020019092919050505090508173ffffffffffffffffffffffffffffffffffffffff166323b872dd8460000151600160009054906101000a900473ffffffffffffffffffffffffffffffffffffffff1686608001516040518463ffffffff1660e01b8152600401808473ffffffffffffffffffffffffffffffffffffffff1681526020018373ffffffffffffffffffffffffffffffffffffffff1681526020018281526020019350505050602060405180830381600087803b15801561228f57600080fd5b505af11580156122a3573d6000803e3d6000fd5b505050506040513d60208110156122b957600080fd5b8101908080519060200190929190505050508173ffffffffffffffffffffffffffffffffffffffff166370a08231600160009054906101000a900473ffffffffffffffffffffffffffffffffffffffff166040518263ffffffff1660e01b8152600401808273ffffffffffffffffffffffffffffffffffffffff16815260200191505060206040518083038186803b15801561235457600080fd5b505afa158015612368573d6000803e3d6000fd5b505050506040513d602081101561237e57600080fd5b81019080805190602001909291905050508360800151820114156123a857600193505050506123b0565b600093505050505b919050565b60008160405160200180807f19457468657265756d205369676e6564204d6573736167653a0a333200000000815250601c01828152602001915050604051602081830303815290604052805190602001209050919050565b60006041825114612486576040517f08c379a000000000000000000000000000000000000000000000000000000000815260040180806020018281038252601f8152602001807f45434453413a20696e76616c6964207369676e6174757265206c656e6774680081525060200191505060405180910390fd5b60008060006020850151925060408501519150606085015160001a90507f7fffffffffffffffffffffffffffffff5d576e7357a4501ddfe92f46681b20a08260001c111561251f576040517f08c379a00000000000000000000000000000000000000000000000000000000081526004018080602001828103825260228152602001806128ad6022913960400191505060405180910390fd5b601b8160ff16141580156125375750601c8160ff1614155b1561258d576040517f08c379a00000000000000000000000000000000000000000000000000000000081526004018080602001828103825260228152602001806128cf6022913960400191505060405180910390fd5b600060018783868660405160008152602001604052604051808581526020018460ff1681526020018381526020018281526020019450505050506020604051602081039080840390855afa1580156125e9573d6000803e3d6000fd5b505050602060405103519050600073ffffffffffffffffffffffffffffffffffffffff168173ffffffffffffffffffffffffffffffffffffffff161415612698576040517f08c379a00000000000000000000000000000000000000000000000000000000081526004018080602001828103825260188152602001807f45434453413a20696e76616c6964207369676e6174757265000000000000000081525060200191505060405180910390fd5b8094505050505092915050565b600080828401905083811015612723576040517f08c379a000000000000000000000000000000000000000000000000000000000815260040180806020018281038252601b8152602001807f536166654d6174683a206164646974696f6e206f766572666c6f77000000000081525060200191505060405180910390fd5b8091505092915050565b60008082806020019051602081101561274557600080fd5b8101908080519060200190929190505050905080915050919050565b828054600181600116156101000203166002900490600052602060002090601f016020900481019282601f106127a257805160ff19168380011785556127d0565b828001600101855582156127d0579182015b828111156127cf5782518255916020019190600101906127b4565b5b5090506127dd919061288f565b5090565b604051806101800160405280600073ffffffffffffffffffffffffffffffffffffffff1681526020016000600381111561281757fe5b81526020016000600381111561282957fe5b81526020016000600481111561283b57fe5b81526020016000815260200160008152602001600081526020016000815260200160008152602001600073ffffffffffffffffffffffffffffffffffffffff16815260200160608152602001606081525090565b5b808211156128a8576000816000905550600101612890565b509056fe45434453413a20696e76616c6964207369676e6174757265202773272076616c756545434453413a20696e76616c6964207369676e6174757265202776272076616c7565a2646970667358221220ac764ec3b8fae5ed47b6c7dc9a9fe539d0bb3bb5ebd9c8553f00bf79cbd47e9e64736f6c634300060c0033",
  "immutableReferences": {},
  "source": "pragma solidity 0.6.12;\r\n\r\nimport \"./Enum.sol\";\r\nimport \"./ERC165.sol\";\r\n\r\n\r\nimport \"@openzeppelin/contracts/math/SafeMath.sol\";\r\nimport \"@openzeppelin/contracts/cryptography/ECDSA.sol\";\r\nimport \"@openzeppelin/contracts/token/ERC20/ERC20.sol\";\r\n\r\n\r\n// contract Subscription is Enum, ERC165 {\r\ncontract Subscription is Enum {\r\n\r\n    // I am going to implement this backwards, where the publisher is the owner and the the subscriber is the reciepent\r\n\r\n    using SafeMath for uint256;\r\n    using ECDSA for bytes32;\r\n\r\n    receive () external payable {\r\n        emit Received(msg.sender, msg.value);\r\n    }\r\n\r\n    //------------------- Storage -------------------\r\n\r\n    struct Subscriptions {\r\n        address subscriber;\r\n        Enum.SubscriptionStatus status;\r\n        Enum.Period period;\r\n        Enum.Operation operation;\r\n        uint256 value;\r\n        uint256 txGas;\r\n        uint256 dataGas;\r\n        uint256 gasPrice;\r\n        uint256 nextWithdraw;\r\n        address gasToken;\r\n        bytes data;\r\n        bytes meta;\r\n        // bytes signedHash;\r\n    }\r\n\r\n    struct MetaStruct {\r\n        address refundAddress;\r\n        uint256 period;\r\n        uint256 offChainID;\r\n        uint256 expiration;\r\n    }\r\n\r\n    Subscriptions[] public SubscriptionList;\r\n\r\n    address private _publisher;\r\n    address private _master;\r\n\r\n    constructor(address publisher, address master) public {\r\n\r\n        _publisher = publisher;\r\n        _master = master;\r\n\r\n        // Make first subscription object in list invalid\r\n        SubscriptionList.push(Subscriptions(\r\n            address(0),\r\n            Enum.SubscriptionStatus(3),\r\n            Enum.Period(0),\r\n            Enum.Operation(2),\r\n            0,\r\n            0,\r\n            0,\r\n            0,\r\n            0,\r\n            address(0),\r\n            abi.encode(0),\r\n            abi.encode(0)\r\n            // abi.encode(0)\r\n        ));\r\n    }\r\n\r\n    //------------------- Events -------------------\r\n\r\n    event Received (address indexed sender, uint value);\r\n    event createdSubscription(address to);\r\n\r\n\r\n    event addressEvent (address add);\r\n    event uintEvent (uint256 a);\r\n    event boolEvent (bool truth);\r\n    event stringEvent (string todo);\r\n\r\n    //------------------- Mapping -------------------\r\n\r\n    // for some cases of delegated execution, this contract will pay a third party\r\n    // to execute the transfer. If this happens, the owner of this contract must\r\n    // sign the subscriptionHash\r\n\r\n    // In my case, use this to charge the subscription cut possibly?\r\n    mapping(bytes32 => bool) public publisherSigned;\r\n\r\n    mapping(bytes32 => uint256) public hashToSubscription;\r\n    //------------------- Public View Functions -------------------\r\n\r\n    /* @dev Checks if the subscription is valid.\r\n    * @param subscriptionHash is the identifier of the customer's subscription with its relevant details.\r\n    * @return success is the result of whether the subscription is valid or not.\r\n    **/\r\n    function isValidSubscription(\r\n            uint256 subscriptionHash\r\n        ) \r\n        public \r\n        view\r\n        returns (\r\n            bool success\r\n        ) {\r\n            return hashToSubscription[bytes32(subscriptionHash)] != 0;\r\n        }\r\n\r\n    /* @dev returns the value of the subscription\r\n    * @param subscriptionHash is the identifier of the customer's subscription with its relevant details.\r\n    * @return status is the enumerated status of the current subscription, 0 expired, 1 active, 2 paused, 3 cancelled\r\n    * @return nextWithdraw is the time to next withdraw in seconds\r\n    **/\r\n\r\n    function getSubscriptionStatus(\r\n        uint256 subscriptionHash\r\n        )\r\n        public \r\n        view \r\n        returns (\r\n            uint256 status, \r\n            uint256 nextWithdraw\r\n        ) {\r\n            return (\r\n                uint256(SubscriptionList[hashToSubscription[bytes32(subscriptionHash)]].status), \r\n                SubscriptionList[hashToSubscription[bytes32(subscriptionHash)]].nextWithdraw\r\n                );\r\n        }\r\n\r\n\r\n    function getSubscriptionsForAddress(\r\n        address subscriber\r\n    )   public view returns (\r\n        uint[] memory\r\n    ) {\r\n        // doing this to make it a view function\r\n        uint256 numFound = 0;\r\n        for(uint i = 0; i < SubscriptionList.length; i++) {\r\n            if (SubscriptionList[i].subscriber == subscriber ) {\r\n                numFound++;\r\n            }\r\n        }\r\n\r\n        uint[] memory ids = new uint[](numFound);\r\n        uint j = 0;\r\n\r\n        for(uint i = 0; i < SubscriptionList.length; i++) {\r\n            if (SubscriptionList[i].subscriber == subscriber ) {\r\n                ids[j] = i;\r\n                j++;\r\n            }\r\n        }\r\n\r\n        return ids;\r\n    }   \r\n\r\n    /* @dev returns the hash of cocatenated inputs to the address of the contract holding the logic.,\r\n    * the owner would sign this hash and then provide it to the party for execution at a later date,\r\n    * this could be viewed like a cheque, with the exception that unless you specifically\r\n    * capture the hash on chain a valid signature will be executable at a later date, capturing the hash lets you modify the status to cancel or expire it.\r\n    * @param recipient the address of the person who is getting the funds.\r\n    * @param value the value of the transaction\r\n    * @param data the data the user is agreeing to\r\n    * @param txGas the cost of executing one of these transactions in gas(probably safe to pad this)\r\n    * @param dataGas the cost of executing the data portion of the transaction(delegate calls etc)\r\n    * @param gasPrice the agreed upon gas cost of Execution of this subscription(cost incurment is up to implementation, ie, sender or receiver)\r\n    * @param gasToken address of the token in which gas will be compensated by, address(0) is ETH, only works in the case of an enscrow implementation)\r\n    * @param meta dynamic bytes array with 4 slots, 2 required, 2 optional // address refundAddress / uint256 period / uint256 offChainID / uint256 expiration (uinx timestamp)\r\n    * @return subscriptionHash return the hash input arguments concatenated to the address of the contract that holds the logic.\r\n    **/\r\n    function getSubscriptionHash(\r\n        address recipient,\r\n        uint256 value,\r\n        bytes memory data,\r\n        Enum.Operation operation,\r\n        uint256 txGas,\r\n        uint256 dataGas,\r\n        uint256 gasPrice,\r\n        address gasToken,\r\n        bytes memory meta\r\n        )\r\n        public\r\n        view\r\n        returns (\r\n            bytes32 \r\n        ) {\r\n            // TODO: Add requirements \r\n            \r\n        return keccak256(\r\n            abi.encodePacked(\r\n                byte(0x19), \r\n                byte(0), \r\n                recipient, \r\n                value, \r\n                data, \r\n                // operation, \r\n                txGas, \r\n                dataGas, \r\n                gasPrice, \r\n                gasToken, \r\n                meta,\r\n                Enum.SubscriptionStatus.ACTIVE\r\n        ));\r\n        }\r\n\r\n    /* @dev returns the hash of concatenated inputs that the owners user would sign with their public keys\r\n    * @param recipient the address of the person who is getting the funds.\r\n    * @param value the value of the transaction\r\n    * @return returns the hash of concatenated inputs with the address of the contract holding the subscription hash\r\n    **/\r\n    function getModifyStatusHash(\r\n            bytes32 subscriptionHash,\r\n            Enum.SubscriptionStatus status\r\n        )\r\n        public\r\n        view\r\n        returns (\r\n            bytes32 \r\n        ){\r\n        // TODO\r\n\r\n        uint subscriptionId = hashToSubscription[subscriptionHash];\r\n\r\n        require (subscriptionId != 0, \"Invalid subscriptionHash\" );\r\n\r\n        // does status go into data?\r\n\r\n        return keccak256(\r\n            abi.encodePacked(\r\n                byte(0x19), \r\n                byte(0), \r\n                SubscriptionList[subscriptionId].subscriber, \r\n                SubscriptionList[subscriptionId].value, \r\n                SubscriptionList[subscriptionId].data, \r\n                // SubscriptionList[subscriptionId].operation, \r\n                SubscriptionList[subscriptionId].txGas, \r\n                SubscriptionList[subscriptionId].dataGas, \r\n                SubscriptionList[subscriptionId].gasPrice, \r\n                SubscriptionList[subscriptionId].gasToken, \r\n                SubscriptionList[subscriptionId].meta,\r\n                status\r\n        ));\r\n        }\r\n\r\n    //------------------- Public Functions -------------------\r\n\r\n    /* @dev modifys the current subscription status\r\n    * @param subscriptionHash is the identifier of the customer's subscription with its relevant details.\r\n    * @param status the new status of the subscription\r\n    * @param signatures of the requested method being called\r\n    * @return success is the result of the subscription being paused\r\n    **/\r\n    function modifyStatus(\r\n        bytes32 subscriptionHash, \r\n        Enum.SubscriptionStatus status, \r\n        bytes memory signatures\r\n        ) \r\n        public \r\n        returns (\r\n            bool success\r\n        ) {\r\n        // TODO\r\n\r\n        uint256 subNumber = hashToSubscription[subscriptionHash];\r\n\r\n        bytes32 modifyStatusHash = getModifyStatusHash(subscriptionHash, status);\r\n\r\n        address signer = _getSubscriptionSigner(modifyStatusHash, signatures);\r\n\r\n        if(signer != msg.sender) {\r\n            return false;\r\n        } else {\r\n            hashToSubscription[subscriptionHash] = 0;\r\n            hashToSubscription[modifyStatusHash] = subNumber;\r\n            SubscriptionList[subNumber].status = status;\r\n            return true;\r\n        }\r\n        }\r\n\r\n\r\n\r\n    \r\n    /* @dev returns the hash of cocatenated inputs to the address of the contract holding the logic.,\r\n    * the owner would sign this hash and then provide it to the party for execution at a later date,\r\n    * this could be viewed like a cheque, with the exception that unless you specifically\r\n    * capture the hash on chain a valid signature will be executable at a later date, capturing the hash lets you modify the status to cancel or expire it.\r\n    * @param to the address of the person who is getting the funds.\r\n    * @param value the value of the transaction\r\n    * @param data the data the user is agreeing to\r\n    * @param txGas the cost of executing one of these transactions in gas(probably safe to pad this)\r\n    * @param dataGas the cost of executing the data portion of the transaction(delegate calls etc)\r\n    * @param gasPrice the agreed upon gas cost of Execution of this subscription(cost incurment is up to implementation, ie, sender or receiver)\r\n    * @param gasToken address of the token in which gas will be compensated by, address(0) is ETH, only works in the case of an enscrow implementation)\r\n    * @param meta dynamic bytes array with 4 slots, 2 required, 2 optional // address refundAddress / uint256 period / uint256 offChainID / uint256 expiration (uinx timestamp)\r\n    * @param signatures signatures concatenated that have signed the inputs as proof of valid execution\r\n    * @return success something to note that a failed execution will still pay the issuer of the transaction for their gas costs.\r\n    **/\r\n    function executeSubscription(\r\n            address to,\r\n            uint256 value,\r\n            bytes memory data,\r\n            Enum.Operation operation,\r\n            uint256 txGas,\r\n            uint256 dataGas,\r\n            uint256 gasPrice,\r\n            address gasToken,\r\n            bytes memory meta,\r\n            bytes memory signatures\r\n            )\r\n            public \r\n            returns (\r\n                bool success\r\n            ) {\r\n            // TODO\r\n\r\n            // create subscription hash\r\n\r\n            bytes32 _subHash = getSubscriptionHash(to, value, data, operation, txGas, dataGas, gasPrice, gasToken, meta);\r\n\r\n            // check for valid signature\r\n\r\n            address signer = _getSubscriptionSigner(_subHash, signatures);\r\n\r\n            // If creating subscription\r\n            if (operation == Enum.Operation.Create) {\r\n                // Subscriber must initialize their own subscription\r\n                if (signer != msg.sender) {\r\n\r\n                    return false;\r\n\r\n                } else if (hashToSubscription[_subHash] != 0) {\r\n                    // Subscription has already been created\r\n                    return false;\r\n\r\n                } else {\r\n\r\n                    SubscriptionList.push(Subscriptions(\r\n                            to, \r\n                            Enum.SubscriptionStatus.ACTIVE, \r\n                            Enum.Period(_periodFromMeta(meta)), \r\n                            operation, \r\n                            value, \r\n                            txGas, \r\n                            dataGas, \r\n                            gasPrice,\r\n                            block.timestamp - 1, \r\n                            gasToken, \r\n                            data, \r\n                            meta\r\n                            // signatures\r\n                        )\r\n                    );\r\n\r\n                    emit createdSubscription(to);\r\n\r\n                    hashToSubscription[_subHash] = SubscriptionList.length - 1;\r\n                    return true;\r\n                }\r\n\r\n            } else if (operation == Enum.Operation.Call) {\r\n\r\n                if (signer != SubscriptionList[hashToSubscription[_subHash]].subscriber ) {\r\n                    // not a correctly signed meta transaction\r\n                    return false;\r\n                }\r\n\r\n                // TODO: check for valid timestamp\r\n                if (SubscriptionList[hashToSubscription[_subHash]].nextWithdraw > block.timestamp) {\r\n                    return false;\r\n                } else {\r\n                    _updateTimestamp(_subHash);\r\n                    return _transferTokens(_subHash);\r\n                }\r\n            }\r\n        }\r\n\r\n    //------------------- Private Functions -------------------\r\n\r\n    function _updateTimestamp(bytes32 _subHash) internal {\r\n        Enum.Period _period = SubscriptionList[hashToSubscription[_subHash]].period;\r\n\r\n        if (_period == Enum.Period(0)) {\r\n            SubscriptionList[hashToSubscription[_subHash]].nextWithdraw = block.timestamp.add(60);\r\n        } else if (_period == Enum.Period(1)) {\r\n            SubscriptionList[hashToSubscription[_subHash]].nextWithdraw = block.timestamp.add(86400);\r\n        } else if (_period == Enum.Period(2)) {\r\n            SubscriptionList[hashToSubscription[_subHash]].nextWithdraw = block.timestamp.add(604800);\r\n        } else if (_period == Enum.Period(3)){\r\n            SubscriptionList[hashToSubscription[_subHash]].nextWithdraw = block.timestamp.add(2592000);\r\n        }\r\n        require(SubscriptionList[hashToSubscription[_subHash]].nextWithdraw > block.timestamp, \"Failed to update next withdraw\");\r\n    }\r\n\r\n    function _getSubscriptionSigner(\r\n        bytes32 subscriptionHash, \r\n        bytes memory signatures\r\n        ) \r\n        internal \r\n        pure\r\n        returns (\r\n            address\r\n        )  {\r\n        return subscriptionHash.toEthSignedMessageHash().recover(signatures);\r\n    }\r\n\r\n    function _refundAddressFromMeta(\r\n        bytes memory meta\r\n        ) \r\n        internal \r\n        pure\r\n        returns (\r\n            address\r\n        )  {\r\n        (address _refundAddress, uint256 _period, uint256 _offChainId, uint256 _expiration) = abi.decode(meta, (address, uint256, uint256, uint256));\r\n        return _refundAddress;\r\n    }\r\n\r\n    function _periodFromMeta(\r\n        bytes memory meta\r\n        ) \r\n        internal \r\n        pure\r\n        returns (\r\n            uint256\r\n        ){\r\n        (address _refundAddress, uint256 _period, uint256 _offChainId, uint256 _expiration) = abi.decode(meta, (address, uint256, uint256, uint256));\r\n        return _period;\r\n    }\r\n\r\n    function _tokenFromData(\r\n        bytes memory data\r\n        ) \r\n        internal \r\n        pure\r\n        returns (\r\n            address\r\n        ){\r\n        (address _tokenAddress) = abi.decode(data, (address));\r\n        return _tokenAddress;\r\n    }\r\n\r\n\r\n    function _transferTokens(bytes32 _subHash) internal returns (bool) {\r\n\r\n        Subscriptions memory _subscription = SubscriptionList[hashToSubscription[_subHash]];\r\n\r\n        address _tokenAddress = _tokenFromData(_subscription.data);\r\n        \r\n        if (ERC20(_tokenAddress).allowance(_subscription.subscriber, address(this)) == 0) {\r\n            // No allowance left on ERC20 contract so setting to expire\r\n            SubscriptionList[hashToSubscription[_subHash]].status = Enum.SubscriptionStatus(3);\r\n            return false;\r\n        }\r\n\r\n        uint256 _startingBalance = ERC20(_tokenAddress).balanceOf(_publisher);\r\n\r\n        ERC20(_tokenAddress).transferFrom(_subscription.subscriber, _publisher, _subscription.value);\r\n\r\n        // Check if it worked\r\n        if (_startingBalance + _subscription.value == ERC20(_tokenAddress).balanceOf(_publisher)) {\r\n            return true;\r\n        } else {\r\n            return false;\r\n        }\r\n    }\r\n}",
  "sourcePath": "/mnt/c/Users/ghard/Documents/GitHub/ERC-1337-Sandbox/contracts/Subscription.sol",
  "compiler": {
    "name": "solc",
    "version": "0.6.12+commit.27d51765.Emscripten.clang"
  },
  "schemaVersion": "3.3.1",
  "updatedAt": "2020-10-23T21:15:51.593Z",
  "networkType": "ethereum",
  "devdoc": {
    "kind": "dev",
    "methods": {},
    "version": 1
  },
  "userdoc": {
    "kind": "user",
    "methods": {},
    "version": 1
  }
}